:100000000C942A000C949E0A0C94E30A0C94280B7E
:100010000C9447000C9447000C94CD080C944700B6
:100020000C9447000C9447000C9447000C94470034
:100030000C9447000C9407070C9447000C943C0761
:100040000C9447000C9447000C9447000C94470014
:100050000C94470011241FBECFE5D8E0DEBFCDBF12
:1000600011E0A0E6B0E0E8EEF7E702C005900D92DF
:10007000A234B107D9F711E0A2E4B1E001C01D92AA
:10008000AA3EB107E1F70E943B3A0C94F23B0C9474
:100090000000EF92FF920F931F937B018C0120E0F1
:1000A00030E040E05FE40E94490388238CF0C801FF
:1000B000B70120E030E040E05FE40E94C1010E940F
:1000C000A9039B01AC01205030404040504806C07D
:1000D000C801B7010E94A9039B01AC01B901CA0183
:1000E0001F910F91FF90EF900895A0E0B0E0EBE733
:1000F000F0E00C949A3BDC012B01FA019C919230C8
:1001000008F439C1EB018881823008F433C194309E
:1001100069F4843009F02FC111969C91119789815F
:10012000981709F428C1A9E2B1E025C1843009F487
:1001300021C18230A9F4923009F01DC19A01AD01AC
:1001400088E0EA010990AE01E90109929E0181501F
:10015000C1F7E201898111969C918923818308C1AD
:10016000923009F407C112962D903C901397EB0141
:100170008A819B811496AD90BD90CD90DC901797AD
:10018000EC80FD800E811F819101281B390BB90184
:1001900037FF04C066277727621B730B6032710537
:1001A0000CF061C0121613066CF537014801062EDB
:1001B00004C096948794779467940A94D2F721E0C8
:1001C00030E040E050E004C0220F331F441F551FB1
:1001D0006A95D2F721503040404050402E213F21B7
:1001E00040235123211531054105510521F021E01E
:1001F00030E040E050E079018A01E628F72808293C
:1002000019293CC0232BD1F1260E371E350146019A
:10021000062E04C096948794779467940A94D2F734
:1002200021E030E040E050E004C0220F331F441FC3
:10023000551F6A95D2F721503040404050402A2146
:100240003B214C215D21211531054105510521F04E
:1002500021E030E040E050E059016A01A628B728CB
:10026000C828D9280BC0821593052CF01C01AA249C
:10027000BB24650103C0EE24FF24870111969C91E5
:10028000D20111968C91981709F445C0992339F041
:10029000A80197012A193B094C095D0906C0A6016E
:1002A00095012E193F09400B510B57FD08C01182D3
:1002B0003382228224833583468357831DC081E0A5
:1002C00081833382228288279927DC01821B930B4A
:1002D000A40BB50B84839583A683B7830DC0220F2F
:1002E000331F441F551F24833583468357838281E0
:1002F000938101979383828324813581468157813D
:10030000DA01C9010197A109B1098F5F9F4FAF4F72
:10031000BF4328F30BC0918333822282EA0CFB1C7B
:100320000C1D1D1DE482F5820683178383E0808304
:10033000248135814681578157FF1AC0C901AA27F8
:1003400097FDA095BA2F81709070A070B0705695EF
:10035000479537952795822B932BA42BB52B848318
:100360009583A683B7838281938101969383828349
:10037000DF0101C0D201CD01CDB7DEB7E2E10C94BF
:10038000B63BA0E2B0E0E7ECF1E00C94A63B698359
:100390007A838B839C832D833E834F835887E9E048
:1003A000EE2EF12CEC0EFD1ECE010196B7010E943F
:1003B000D2048E010F5E1F4FCE010596B8010E9438
:1003C000D2048A8991E089278A8BC701B801AE01DE
:1003D000475E5F4F0E9475000E94FD03A096E6E015
:1003E0000C94C23BA0E2B0E0E8EFF1E00C94A63B35
:1003F00069837A838B839C832D833E834F835887C5
:10040000F9E0EF2EF12CEC0EFD1ECE010196B701A6
:100410000E94D2048E010F5E1F4FCE010596B801D7
:100420000E94D204C701B801AE01475E5F4F0E942F
:1004300075000E94FD03A096E6E00C94C23BA0E28A
:10044000B0E0E5E2F2E00C949A3B69837A838B8317
:100450009C832D833E834F835887CE010196BE0136
:10046000675F7F4F0E94D204CE010596BE016F5E8A
:100470007F4F0E94D2049985923088F0898982301A
:10048000C8F0943019F4823051F404C0843029F457
:10049000923081F489E291E0C6C0923049F420E0C4
:1004A0009A858A89981321E02A87CE010996BBC0D4
:1004B000823049F420E09A858A89981321E02A8BBA
:1004C000CE014196B0C02D843E844F8458886D88FB
:1004D0007E888F88988CEE24FF248701AA24BB2471
:1004E000650140E050E060E070E0E0E0F0E0C10174
:1004F00081709070892BE9F0E60CF71C081D191D1E
:100500009A01AB012A0D3B1D4C1D5D1D80E090E062
:10051000A0E0B0E0E614F7040805190520F481E036
:1005200090E0A0E0B0E0BA01A901480F591F6A1F8E
:100530007B1FAA0CBB1CCC1CDD1C97FE08C081E0F5
:1005400090E0A0E0B0E0A82AB92ACA2ADB2A3196B6
:10055000E032F10549F0660C771C881C991C569412
:10056000479437942794C3CFFA85EA892B893C892D
:100570008B859C85280F391F2E5F3F4F17C0CA01FE
:1005800081709070892B61F016950795F794E79428
:1005900080E090E0A0E0B0E8E82AF92A0A2B1B2BC3
:1005A00076956795579547952F5F3F4F77FDE7CF36
:1005B0000CC0440F551F661F771F17FD4160EE0CDE
:1005C000FF1C001F111F21503040403090E05907A0
:1005D00090E0690790E4790760F32B8F3C8FDB0193
:1005E000CA018F779070A070B07080349105A1051A
:1005F000B10561F447FD0AC0E114F10401051105DC
:1006000029F0405C5F4F6F4F7F4F40781A8EFE1786
:1006100011F081E08A8F4D8F5E8F6F8F78A383E01A
:10062000898FCE0149960E94FD03A096E2E10C94C9
:10063000B63BA8E1B0E0EFE1F3E00C94A63B6983A0
:100640007A838B839C832D833E834F83588789E0F5
:10065000E82EF12CEC0EFD1ECE010196B7010E9492
:10066000D2048E010F5E1F4FCE010596B8010E9485
:10067000D2048985823040F08989823028F0C70110
:10068000B8010E944A0501C08FEF6896E6E00C941D
:10069000C23BA8E1B0E0EFE4F3E00C94A63B698331
:1006A0007A838B839C832D833E834F83588789E095
:1006B000E82EF12CEC0EFD1ECE010196B7010E9432
:1006C000D2048E010F5E1F4FCE010596B8010E9425
:1006D000D2048985823040F08989823028F0C701B0
:1006E000B8010E944A0501C08FEF6896E6E00C94BD
:1006F000C23BA8E1B0E0EFE7F3E00C94A63B6983CE
:100700007A838B839C832D833E834F83588789E034
:10071000E82EF12CEC0EFD1ECE010196B7010E94D1
:10072000D2048E010F5E1F4FCE010596B8010E94C4
:10073000D2048985823040F08989823028F0C7014F
:10074000B8010E944A0501C081E06896E6E00C9479
:10075000C23BACE0B0E0EFEAF3E00C94AA3B698363
:100760007A838B839C83CE010196BE016B5F7F4FA2
:100770000E94D2048D81823061F1823050F1843048
:1007800021F48E81882351F12EC02F81388537FDC9
:1007900020C06E812F3131051CF06623F9F023C093
:1007A0008EE190E0821B930B29853A854B855C8511
:1007B00004C056954795379527958A95D2F76623B5
:1007C000B1F050954095309521953F4F4F4F5F4F79
:1007D0000EC020E030E040E050E009C02FEF3FEFD6
:1007E0004FEF5FE704C020E030E040E050E8B9019F
:1007F000CA012C96E2E00C94C63BDF92EF92FF9286
:100800000F931F93FC01E480F58006811781D1804E
:100810008081823048F480E090E0A0E1B0E0E82AF6
:10082000F92A0A2B1B2BA5C0843009F49FC0823003
:1008300021F4EE24FF24870105C0E114F104010531
:10084000110519F4E0E0F0E096C0628173819FEF3A
:10085000623879070CF05BC022E83FEF261B370BAC
:100860002A3131052CF020E030E040E050E02AC091
:10087000B801A701022E04C0769567955795479554
:100880000A94D2F781E090E0A0E0B0E004C0880FC5
:10089000991FAA1FBB1F2A95D2F70197A109B10979
:1008A0008E219F21A023B1230097A105B10521F03E
:1008B00081E090E0A0E0B0E09A01AB01282B392B59
:1008C0004A2B5B2BDA01C9018F779070A070B07052
:1008D00080349105A105B10539F427FF09C0205CDA
:1008E0003F4F4F4F5F4F04C0215C3F4F4F4F5F4F13
:1008F000E0E0F0E02030A0E03A07A0E04A07A0E402
:100900005A0710F0E1E0F0E079018A0127C0603871
:10091000710564F5FB01E158FF4FD801C7018F77DE
:100920009070A070B07080349105A105B10539F4C4
:10093000E7FE0DC080E490E0A0E0B0E004C08FE3EB
:1009400090E0A0E0B0E0E80EF91E0A1F1B1F17FFA1
:1009500005C016950795F794E794319687E01695AC
:100960000795F794E7948A95D1F705C0EE24FF2404
:100970008701EFEFF0E06E2F679566276795902F60
:100980009F77D794DD24D7948E2F8695492F462BB9
:10099000582F5D29B701CA011F910F91FF90EF9069
:1009A000DF900895FC01DB01408151812281622F9B
:1009B0006F7770E0221F2227221F9381892F880FD3
:1009C000822B282F30E0991F9927991F11969C930D
:1009D000119721153105A9F54115510561057105DD
:1009E00011F482E037C082E89FEF13969C938E93B8
:1009F00012979A01AB0167E0220F331F441F551F66
:100A00006A95D1F783E08C930DC0220F331F441FEA
:100A1000551F12968D919C911397019713969C9355
:100A20008E931297203080E0380780E0480780E4FA
:100A3000580758F314962D933D934D935C93179755
:100A400008952F3F310579F4411551056105710570
:100A500019F484E08C93089564FF03C081E08C93C3
:100A600012C01C9210C02F57304013963C932E9307
:100A7000129783E08C9387E0440F551F661F771F02
:100A80008A95D1F7706414964D935D936D937C9322
:100A9000179708951F93DC01FB019C91923008F495
:100AA00047C08081823008F443C0943051F41196DD
:100AB0001C91843099F58181682F70E0611B710968
:100AC0003FC0843021F0923031F48230B9F181811D
:100AD000882389F12DC011961C9111978230F1F075
:100AE00081811817D9F412962D913C911397828128
:100AF00093818217930794F028173907BCF0149656
:100B00008D919D910D90BC91A02D248135814681C0
:100B10005781281739074A075B0718F4112341F05A
:100B20000AC082179307A407B50740F4112319F0F0
:100B300061E070E005C06FEF7FEF02C060E070E041
:100B4000CB011F910895DF93CF93CDB7DEB7AAE213
:100B5000B0E0EAE2F0E0808180618C93AAE2B0E04C
:100B6000EAE2F0E0808188608C93AAE2B0E0EAE2F9
:100B7000F0E080818B7F8C93E0E4F0E086E8808376
:100B8000E9E2F0E083E38083E9E2F0E083E380835D
:100B9000CF91DF910895DF93CF930F92CDB7DEB75A
:100BA0008983EBE2F0E08081829586958770882FBB
:100BB00090E0817090700097A1F3ECE2F0E0898101
:100BC0008083EBE2F0E08081829586958695837044
:100BD000882F90E081709070009799F3ABE2B0E0BD
:100BE000EBE2F0E0808180648C930F90CF91DF91F5
:100BF0000895DF93CF9300D00F92CDB7DEB78983EE
:100C00007B836A83AAE2B0E0EAE2F0E0808180645C
:100C10008C938A819B819093470180934601ECE2FB
:100C2000F0E0898180830F900F900F90CF91DF913A
:100C30000895DF93CF9300D00F92CDB7DEB79B839B
:100C40008A8319820EC08981282F30E08A819B8196
:100C5000FC01E20FF31F80810E94CB0589818F5F29
:100C600089838981282F30E08A819B81FC01E20FF2
:100C7000F31F8081882339F70F900F900F90CF9149
:100C8000DF910895DF93CF93CDB7DEB7EBE2F0E0CD
:100C900080818823DCF7ECE2F0E08081CF91DF9166
:100CA0000895EF92FF920F931F93DF93CF93CDB7E9
:100CB000DEB728970FB6F894DEBF0FBECDBF6D83A9
:100CC0007E838F83988781E090E0A0E0B0E0898305
:100CD0009A83AB83BC8336C089819A81AB81BC8106
:100CE0002AE030E040E050E0BC01CD010E94593BD9
:100CF0007B018C018D819E81AF81B8852AE030E037
:100D000040E050E0BC01CD010E94783BDC01CB010A
:100D10008E0D9F1DA01FB11F89839A83AB83BC8357
:100D20008D819E81AF81B8852AE030E040E050E0BF
:100D3000BC01CD010E94783BDA01C9018D839E83FD
:100D4000AF83B8878D819E81AF81B8850097A1055B
:100D5000B10511F689819A81AB81BC812AE030E02E
:100D600040E050E0BC01CD010E94783BDC01CB01AA
:100D7000805D0E94CB0589819A81AB81BC812AE08C
:100D800030E040E050E0BC01CD010E94783BDA0148
:100D9000C90189839A83AB83BC8389819A81AB81A2
:100DA000BC8181309105A105B105A1F628960FB649
:100DB000F894DEBF0FBECDBFCF91DF911F910F9191
:100DC000FF90EF900895DF93CF9300D000D0CDB780
:100DD000DEB79A8389837C836B83AAE2B0E0EAE280
:100DE000F0E0808180688C938B819C819093450199
:100DF0008093440189819A819093430180934201B9
:100E00000F900F900F900F90CF91DF9108951F9248
:100E10000F920FB60F9211242F933F934F935F932E
:100E20006F937F938F939F93AF93BF93EF93FF93B2
:100E3000DF93CF93CDB7DEB7A0914201B0914301CC
:100E4000ECE2F0E080818C93E0914401F091450167
:100E50000995CF91DF91FF91EF91BF91AF919F9154
:100E60008F917F916F915F914F913F912F910F9053
:100E70000FBE0F901F9018951F920F920FB60F92F2
:100E800011242F933F934F935F936F937F938F938F
:100E90009F93AF93BF93EF93FF93DF93CF93CDB720
:100EA000DEB78091460190914701009729F0E091CB
:100EB0004601F09147010995CF91DF91FF91EF91A4
:100EC000BF91AF919F918F917F916F915F914F9162
:100ED0003F912F910F900FBE0F901F901895DF93A9
:100EE000CF930F92CDB7DEB7EBE2F0E080811982AD
:100EF000882314F481E0898389810F90CF91DF9159
:100F00000895DF93CF93CDB7DEB7AFE4B0E0EFE461
:100F1000F0E0808182608C93AFE4B0E0EFE4F0E039
:100F200080818E7F8C93AEE4B0E0EEE4F0E08081CF
:100F300088608C93AEE4B0E0EEE4F0E08081806104
:100F40008C93CF91DF910895DF93CF9300D000D0A1
:100F5000CDB7DEB789836A838981282F30E03C834F
:100F60002B838B819C81009731F02B813C81213038
:100F7000310581F01DC0AFE4B0E0EFE4F0E0808126
:100F800080688C93AFE4B0E0EFE4F0E080818F7B89
:100F90008C930EC0AFE4B0E0EFE4F0E080818062BB
:100FA0008C93AFE4B0E0EFE4F0E080818F7E8C932F
:100FB000AEE4B0E0EEE4F0E08081887F8C93AEE4B4
:100FC000B0E0EEE4F0E090818A81892B8C930F9061
:100FD0000F900F900F90CF91DF910895DF93CF93F3
:100FE00000D000D00F92CDB7DEB789837B836A83B0
:100FF0008981282F30E03D832C838C819D8100974F
:1010000031F02C813D812130310541F00DC0EAE401
:10101000F0E08A819B819183808306C0E8E4F0E060
:101020008A819B81918380830F900F900F900F9006
:101030000F90CF91DF910895DF93CF9300D0CDB77C
:10104000DEB79A838983E6E4F0E089819A8191830F
:1010500080830F900F90CF91DF910895DF93CF930E
:1010600000D000D000D0CDB7DEB78B836C838C81ED
:10107000882F90E09C01220F331FC901880F991F10
:10108000880F991F820F931F82519D4F9A838983E6
:101090008B81282F30E03E832D838D819E810097A8
:1010A00031F02D813E812130310541F00DC0EAE45F
:1010B000F0E089819A819183808306C0E8E4F0E0C2
:1010C00089819A819183808326960FB6F894DEBF3A
:1010D0000FBECDBFCF91DF910895DF93CF930F92D5
:1010E000CDB7DEB78983AEE4B0E0EEE4F0E0808116
:1010F000887F8C93AEE4B0E0EEE4F0E090818981EB
:10110000892B8C930F90CF91DF910895DF93CF932C
:10111000CDB7DEB7ECE4F0E011821082CF91DF9121
:101120000895DF93CF93CDB7DEB7ECE4F0E0808194
:101130009181CF91DF910895DF93CF93CDB7DEB743
:10114000AEE4B0E0EEE4F0E08081887F8C93AEE422
:10115000B0E0EEE4F0E080818C93CF91DF910895D0
:10116000DF93CF9300D0CDB7DEB79A83898389818F
:101170009A8190935301809352010F900F90CF91D9
:10118000DF910895DF93CF93CDB7DEB7E6E4F0E0CB
:1011900080819181CF91DF9108951F920F920FB6B8
:1011A0000F9211242F933F934F935F936F937F93ED
:1011B0008F939F93AF93BF93EF93FF93DF93CF935F
:1011C000CDB7DEB7E0915201F09153010995CF916F
:1011D000DF91FF91EF91BF91AF919F918F917F919F
:1011E0006F915F914F913F912F910F900FBE0F9094
:1011F0001F901895DF93CF9300D00F92CDB7DEB735
:1012000089838981282F30E03B832A838A819B81CF
:101210008130910589F02A813B8122303105A1F08E
:101220008A819B810097B9F4ABE5B0E0EBE5F0E093
:10123000808180648C930FC0ABE5B0E0EBE5F0E01B
:10124000808180688C9307C0ABE5B0E0EBE5F0E00F
:10125000808180628C930F900F900F90CF91DF91DF
:101260000895DF93CF9300D00F92CDB7DEB7898377
:101270008981282F30E03B832A838A819B818130BA
:10128000910589F02A813B8122303105A1F08A81C4
:101290009B810097B9F4ABE5B0E0EBE5F0E080812D
:1012A0008F7B8C930FC0ABE5B0E0EBE5F0E0808185
:1012B0008F778C9307C0ABE5B0E0EBE5F0E0808181
:1012C0008F7D8C930F900F900F90CF91DF910895A9
:1012D000DF93CF9300D00F92CDB7DEB7898389819A
:1012E000282F30E03B832A838A819B8181309105BE
:1012F00021F12A813B81223031052CF48A819B81A6
:10130000009761F046C02A813B812230310599F176
:101310008A819B8183309105F9F03BC0A5E5B0E05F
:10132000E5E5F0E0808182608C93A5E5B0E0E5E53D
:10133000F0E080818E7F8C932CC0A5E5B0E0E5E5E0
:10134000F0E0808182608C93A5E5B0E0E5E5F0E017
:10135000808181608C931DC0A5E5B0E0E5E5F0E0FB
:1013600080818D7F8C93A5E5B0E0E5E5F0E080819C
:101370008E7F8C930EC0A5E5B0E0E5E5F0E08081BE
:101380008D7F8C93A5E5B0E0E5E5F0E0808181609C
:101390008C930F900F900F90CF91DF910895DF9372
:1013A000CF9300D00F92CDB7DEB789838981282FE4
:1013B00030E03B832A838A819B818130910521F132
:1013C0002A813B81223031052CF48A819B81009750
:1013D00061F046C02A813B812230310599F18A8132
:1013E0009B8183309105F9F03BC0A5E5B0E0E5E5D0
:1013F000F0E0808188608C93A5E5B0E0E5E5F0E061
:1014000080818B7F8C932CC0A5E5B0E0E5E5F0E012
:10141000808188608C93A5E5B0E0E5E5F0E080810F
:1014200084608C931DC0A5E5B0E0E5E5F0E0808127
:10143000877F8C93A5E5B0E0E5E5F0E080818B7FC8
:101440008C930EC0A5E5B0E0E5E5F0E08081877FF4
:101450008C93A5E5B0E0E5E5F0E0808184608C93B5
:101460000F900F900F90CF91DF910895DF93CF935E
:1014700000D00F92CDB7DEB789838981282F30E065
:101480003B832A838A819B81009731F02A813B81AB
:101490002130310549F00FC0A4E5B0E0E4E5F0E00B
:1014A00080818F7B8C9307C0A4E5B0E0E4E5F0E099
:1014B000808180648C930F900F900F90CF91DF917B
:1014C0000895DF93CF9300D00F92CDB7DEB7898315
:1014D0008981282F30E03B832A838A819B81009772
:1014E00031F02A813B812130310549F00FC0AFE551
:1014F000B0E0EFE5F0E080818F778C9307C0AFE537
:10150000B0E0EFE5F0E0808180688C930F900F9061
:101510000F90CF91DF910895DF93CF9300D0CDB797
:10152000DEB79A83898389819A8190934B01809356
:101530004A010F900F90CF91DF9108951F920F9263
:101540000FB60F9211242F933F934F935F936F9396
:101550007F938F939F93AF93BF93EF93FF93DF930B
:10156000CF93CDB7DEB780914A0190914B010097A0
:1015700029F0E0914A01F0914B010995CF91DF915B
:10158000FF91EF91BF91AF919F918F917F916F915B
:101590005F914F913F912F910F900FBE0F901F9031
:1015A0001895DF93CF9300D0CDB7DEB79A838983A8
:1015B00089819A8190934D0180934C010F900F90F7
:1015C000CF91DF9108951F920F920FB60F921124C1
:1015D0002F933F934F935F936F937F938F939F933B
:1015E000AF93BF93EF93FF93DF93CF93CDB7DEB766
:1015F00080914C0190914D01009729F0E0914C01B0
:10160000F0914D010995CF91DF91FF91EF91BF913D
:10161000AF919F918F917F916F915F914F913F918A
:101620002F910F900FBE0F901F901895DF93CF93BF
:1016300000D0CDB7DEB79A83898389819A81909350
:101640004F0180934E010F900F90CF91DF9108953D
:101650001F920F920FB60F9211242F933F934F9327
:101660005F936F937F938F939F93AF93BF93EF930A
:10167000FF93DF93CF93CDB7DEB780914E0190916A
:101680004F01009729F0E0914E01F0914F0109952B
:10169000CF91DF91FF91EF91BF91AF919F918F918A
:1016A0007F916F915F914F913F912F910F900FBE5E
:1016B0000F901F901895DF93CF93CDB7DEB7299782
:1016C0000FB6F894DEBF0FBECDBF89836A834B830C
:1016D0008981843008F0B0C18A81883008F0ACC1BB
:1016E0008B81813009F06FC08981282F30E03987E4
:1016F0002887888599858130910549F12885398524
:10170000223031052CF488859985009761F094C1C9
:10171000288539852230310571F188859985833096
:101720009105E9F189C1AAE3B0E0EAE3F0E0808144
:10173000482F8A81282F30E081E090E0022E02C0FD
:10174000880F991F0A94E2F7842B8C9375C1A7E345
:10175000B0E0E7E3F0E08081482F8A81282F30E075
:1017600081E090E0022E02C0880F991F0A94E2F7F0
:10177000842B8C9361C1A4E3B0E0E4E3F0E08081CA
:10178000482F8A81282F30E081E090E0022E02C0AD
:10179000880F991F0A94E2F7842B8C934DC1A1E323
:1017A000B0E0E1E3F0E08081482F8A81282F30E02B
:1017B00081E090E0022E02C0880F991F0A94E2F7A0
:1017C000842B8C9339C18B81882309F074C0898163
:1017D000282F30E03F832E838E819F8181309105B9
:1017E00059F12E813F81223031052CF48E819F8169
:1017F000009769F021C12E813F812230310589F1A6
:101800008E819F818330910509F440C015C1AAE300
:10181000B0E0EAE3F0E08081482F8A81282F30E0B1
:1018200081E090E0022E02C0880F991F0A94E2F72F
:10183000809584238C9300C1A7E3B0E0E7E3F0E058
:101840008081482F8A81282F30E081E090E0022EAD
:1018500002C0880F991F0A94E2F7809584238C9325
:10186000EBC0A4E3B0E0E4E3F0E08081482F8A819C
:10187000282F30E081E090E0022E02C0880F991FEF
:101880000A94E2F7809584238C93D6C0A1E3B0E05C
:10189000E1E3F0E08081482F8A81282F30E081E069
:1018A00090E0022E02C0880F991F0A94E2F78095FB
:1018B00084238C93C1C08B81823009F0BDC08981A3
:1018C000282F30E03D832C838C819D8181309105D0
:1018D00009F43EC02C813D81223031052CF48C81ED
:1018E0009D81009771F0A8C02C813D812230310587
:1018F00009F455C08C819D818330910509F476C02F
:101900009BC0AAE3B0E0EAE3F0E08081482F8A813F
:10191000282F30E081E090E002C0880F991F2A95BF
:10192000E2F7809584238C93ABE3B0E0EBE3F0E047
:101930008081482F8A81282F30E081E090E0022EBC
:1019400002C0880F991F0A94E2F7842B8C9374C00D
:10195000A7E3B0E0E7E3F0E08081482F8A81282FF9
:1019600030E081E090E002C0880F991F2A95E2F7ED
:10197000809584238C93A8E3B0E0E8E3F0E08081D5
:10198000482F8A81282F30E081E090E0022E02C0AB
:10199000880F991F0A94E2F7842B8C934DC0A4E31F
:1019A000B0E0E4E3F0E08081482F8A81282F30E026
:1019B00081E090E002C0880F991F2A95E2F7809598
:1019C00084238C93A5E3B0E0E5E3F0E08081482F29
:1019D0008A81282F30E081E090E0022E02C0880F3B
:1019E000991F0A94E2F7842B8C9326C0A1E3B0E000
:1019F000E1E3F0E08081482F8A81282F30E081E008
:101A000090E002C0880F991F2A95E2F78095842301
:101A10008C93A2E3B0E0E2E3F0E08081482F8A817A
:101A2000282F30E081E090E0022E02C0880F991F3D
:101A30000A94E2F7842B8C9329960FB6F894DEBFB4
:101A40000FBECDBFCF91DF910895DF93CF93CDB778
:101A5000DEB728970FB6F894DEBF0FBECDBF8983DF
:101A60006A838981843008F09AC08A818F3F99F512
:101A70008981282F30E038872F838F8198858130A6
:101A80009105D1F02F813885223031052CF48F81DA
:101A90009885009761F083C02F8138852230310509
:101AA00081F08F8198858330910581F078C0EAE3D9
:101AB000F0E08FEF808373C0E7E3F0E08FEF808387
:101AC0006EC0E4E3F0E08FEF808369C0E1E3F0E013
:101AD0008FEF808364C08A81882379F58981282FDC
:101AE00030E03E832D838D819E8181309105C9F048
:101AF0002D813E81223031052CF48D819E8100970D
:101B000061F04DC02D813E812230310571F08D8113
:101B10009E818330910569F042C0EAE3F0E01082D3
:101B20003EC0E7E3F0E010823AC0E4E3F0E0108268
:101B300036C0E1E3F0E0108232C08981282F30E026
:101B40003C832B838B819C8181309105D1F02B814B
:101B50003C81223031052CF48B819C81009761F00F
:101B60001EC02B813C812230310581F08B819C810C
:101B70008330910581F013C0EAE3F0E08A8180832D
:101B80000EC0E7E3F0E08A81808309C0E4E3F0E07F
:101B90008A81808304C0E1E3F0E08A818083289613
:101BA0000FB6F894DEBF0FBECDBFCF91DF91089581
:101BB000DF93CF93CDB7DEB729970FB6F894DEBF8A
:101BC0000FBECDBF89836A834B838981843008F03F
:101BD00021C18A81883008F01DC18B81813009F0D4
:101BE0006FC08981282F30E03987288788859985BB
:101BF0008130910549F128853985223031052CF451
:101C000088859985009761F005C12885398522303E
:101C1000310571F18885998583309105E9F1FAC024
:101C2000ABE3B0E0EBE3F0E08081482F8A81282F1E
:101C300030E081E090E0022E02C0880F991F0A94E4
:101C4000E2F7842B8C93E6C0A8E3B0E0E8E3F0E091
:101C50008081482F8A81282F30E081E090E0022E99
:101C600002C0880F991F0A94E2F7842B8C93D2C08C
:101C7000A5E3B0E0E5E3F0E08081482F8A81282FDA
:101C800030E081E090E0022E02C0880F991F0A9494
:101C9000E2F7842B8C93BEC0A2E3B0E0E2E3F0E075
:101CA0008081482F8A81282F30E081E090E0022E49
:101CB00002C0880F991F0A94E2F7842B8C93AAC064
:101CC0008B81882309F074C08981282F30E03F83FD
:101CD0002E838E819F818130910559F12E813F8124
:101CE000223031052CF48E819F81009769F092C0DB
:101CF0002E813F812230310589F18E819F81833091
:101D0000910509F440C086C0ABE3B0E0EBE3F0E03E
:101D10008081482F8A81282F30E081E090E0022ED8
:101D200002C0880F991F0A94E2F7809584238C9350
:101D300071C0A8E3B0E0E8E3F0E08081482F8A8139
:101D4000282F30E081E090E0022E02C0880F991F1A
:101D50000A94E2F7809584238C935CC0A5E3B0E0FD
:101D6000E5E3F0E08081482F8A81282F30E081E090
:101D700090E0022E02C0880F991F0A94E2F7809526
:101D800084238C9347C0A2E3B0E0E2E3F0E08081DB
:101D9000482F8A81282F30E081E090E0022E02C097
:101DA000880F991F0A94E2F7809584238C9332C0A0
:101DB0008981282F30E03D832C838C819D81813067
:101DC0009105D1F02C813D81223031052CF48C819C
:101DD0009D81009761F01EC02C813D81223031052C
:101DE00081F08C819D818330910581F013C0EBE3FC
:101DF000F0E08B8180830EC0E8E3F0E08B8180838C
:101E000009C0E5E3F0E08B81808304C0E2E3F0E009
:101E10008B81808329960FB6F894DEBF0FBECDBFAD
:101E2000CF91DF910895DF93CF9300D000D0CDB74D
:101E3000DEB789836A838981282F30E03C832B8336
:101E40008B819C8181309105D1F02B813C812230A6
:101E500031052CF48B819C81009761F01EC02B8191
:101E60003C812230310581F08B819C81833091054A
:101E700081F013C0EBE3F0E08A8180830EC0E8E3D9
:101E8000F0E08A81808309C0E5E3F0E08A81808305
:101E900004C0E2E3F0E08A8180830F900F900F90FE
:101EA0000F90CF91DF910895DF93CF9300D000D0B2
:101EB000CDB7DEB789836A838981843008F077C023
:101EC0008A81883008F073C08981282F30E03C83F4
:101ED0002B838B819C818130910559F12B813C8131
:101EE000223031052CF48B819C81009769F05FC012
:101EF0002B813C812230310589F18B819C8183309B
:101F0000910509F440C053C0ABE3B0E0EBE3F0E06F
:101F10008081482F8A81282F30E081E090E0022ED6
:101F200002C0880F991F0A94E2F7809584238C934E
:101F30003EC0A8E3B0E0E8E3F0E08081482F8A816A
:101F4000282F30E081E090E0022E02C0880F991F18
:101F50000A94E2F7809584238C9329C0A5E3B0E02E
:101F6000E5E3F0E08081482F8A81282F30E081E08E
:101F700090E0022E02C0880F991F0A94E2F7809524
:101F800084238C9314C0A2E3B0E0E2E3F0E080810C
:101F9000482F8A81282F30E081E090E0022E02C095
:101FA000880F991F0A94E2F7809584238C930F90F1
:101FB0000F900F900F90CF91DF910895DF93CF9303
:101FC00000D00F92CDB7DEB789838981843070F558
:101FD0008981282F30E03B832A838A819B8181304D
:101FE0009105C9F02A813B81223031052CF48A8188
:101FF0009B81009761F01AC02A813B812230310514
:1020000071F08A819B818330910569F00FC0EBE309
:10201000F0E010820BC0E8E3F0E0108207C0E5E3D7
:10202000F0E0108203C0E2E3F0E010820F900F9026
:102030000F90CF91DF910895DF93CF9300D000D020
:10204000CDB7DEB789836A838981843008F072C096
:102050008A81883008F06EC08981282F30E03C8367
:102060002B838B819C818130910549F12B813C81AF
:10207000223031052CF48B819C81009761F05AC08D
:102080002B813C812230310571F18B819C81833021
:102090009105E9F14FC0ABE3B0E0EBE3F0E0808104
:1020A000482F8A81282F30E081E090E0022E02C084
:1020B000880F991F0A94E2F784278C933BC0A8E30A
:1020C000B0E0E8E3F0E08081482F8A81282F30E0FB
:1020D00081E090E0022E02C0880F991F0A94E2F777
:1020E00084278C9327C0A5E3B0E0E5E3F0E080818E
:1020F000482F8A81282F30E081E090E0022E02C034
:10210000880F991F0A94E2F784278C9313C0A2E3E7
:10211000B0E0E2E3F0E08081482F8A81282F30E0B0
:1021200081E090E0022E02C0880F991F0A94E2F726
:1021300084278C930F900F900F900F90CF91DF9189
:102140000895DF93CF9300D00F92CDB7DEB7898388
:102150008981843008F03EC08981282F30E03B839C
:102160002A838A819B8181309105E9F02A813B8114
:10217000223031052CF48A819B81009761F02AC0BE
:102180002A813B8122303105B1F08A819B818330E5
:102190009105C9F01FC0ABE3B0E0EBE3F0E0808154
:1021A00080958C9317C0A8E3B0E0E8E3F0E080816D
:1021B00080958C930FC0A5E3B0E0E5E3F0E080816B
:1021C00080958C9307C0A2E3B0E0E2E3F0E0808169
:1021D00080958C930F900F900F90CF91DF91089581
:1021E000DF93CF9300D000D00F92CDB7DEB78A83B4
:1021F0006B838A81843008F06BC08B81883008F053
:1022000067C08A81282F30E03D832C834C815D811B
:102210004130510541F18C819D818230910534F42A
:102220002C813D812115310561F052C04C815D81C9
:102230004230510551F18C819D8183309105B9F176
:1022400047C0E9E3F0E08081282F30E08B81882FC0
:1022500090E0A90102C0559547958A95E2F7CA0119
:102260008170898335C0E6E3F0E08081282F30E07B
:102270008B81882F90E0A90102C0559547958A95DA
:10228000E2F7CA018170898323C0E3E3F0E0808133
:10229000282F30E08B81882F90E0A90102C055954E
:1022A00047958A95E2F7CA018170898311C0E0E3FE
:1022B000F0E08081282F30E08B81882F90E0A90109
:1022C00002C0559547958A95E2F7CA0181708983C6
:1022D00089810F900F900F900F900F90CF91DF9109
:1022E0000895DF93CF9300D000D0CDB7DEB78A83B7
:1022F0008A81843090F58A81282F30E03C832B83BB
:102300008B819C8181309105D1F02B813C812230E1
:1023100031052CF48B819C81009761F01EC02B81CC
:102320003C812230310581F08B819C818330910585
:1023300081F013C0E9E3F0E0808189830EC0E6E319
:10234000F0E08081898309C0E3E3F0E08081898344
:1023500004C0E0E3F0E08081898389810F900F90D1
:102360000F900F90CF91DF910895DF93CF93CDB76A
:10237000DEB781E060E041E00E945B0B81E061E05C
:1023800041E00E945B0B81E062E041E00E945B0B58
:1023900081E063E041E00E945B0B81E060E041E0AE
:1023A0000E94D80D81E061E041E00E94D80D81E0FB
:1023B00062E041E00E94D80D81E063E041E00E94CC
:1023C000D80DCF91DF910895DF93CF93CDB7DEB7CE
:1023D000E8970FB6F894DEBF0FBECDBF81E060E096
:1023E00040E00E94D80D81E061E041E00E94D80DFC
:1023F00081E062E041E00E94D80D81E063E041E0CD
:102400000E94D80D80E090E0A0E0B0E48DAB9EABE0
:10241000AFABB8AF6DA97EA98FA998AD20E030E031
:102420004AEF54E40E941F02DC01CB0189AB9AAB56
:10243000ABABBCAB69A97AA98BA99CA920E030E021
:1024400040E85FE30E94790388232CF481E090E068
:1024500098AB8FA73FC069A97AA98BA99CA920E056
:102460003FEF4FE757E40E94190318164CF56DA98A
:102470007EA98FA998AD20E030E040E251E40E94AF
:102480001F02DC01CB01BC01CD010E944900DC012F
:10249000CB0198AB8FA70FC088EC90E09EA78DA7CB
:1024A0008DA59EA50197F1F79EA78DA78FA598A949
:1024B000019798AB8FA78FA598A9009769F714C0CB
:1024C00069A97AA98BA99CA90E944900DC01CB01CA
:1024D00098AB8FA78FA598A99CA78BA78BA59CA528
:1024E0000197F1F79CA78BA781E060E041E00E9493
:1024F000D80D81E061E040E00E94D80D81E062E00B
:1025000041E00E94D80D81E063E041E00E94D80DD7
:1025100080E090E0A0E0B0E48FA398A7A9A7BAA7B5
:102520006FA178A589A59AA520E030E04AEF54E490
:102530000E941F02DC01CB018BA39CA3ADA3BEA311
:102540006BA17CA18DA19EA120E030E040E85FE37B
:102550000E94790388232CF481E090E09AA389A358
:102560003FC06BA17CA18DA19EA120E03FEF4FE772
:1025700057E40E94190318164CF56FA178A589A598
:102580009AA520E030E040E251E40E941F02DC0105
:10259000CB01BC01CD010E944900DC01CB019AA313
:1025A00089A30FC088EC90E098A38F8F8F8D98A19E
:1025B0000197F1F798A38F8F89A19AA101979AA308
:1025C00089A389A19AA1009769F714C06BA17CA186
:1025D0008DA19EA10E944900DC01CB019AA389A391
:1025E00089A19AA19E8F8D8F8D8D9E8D0197F1F778
:1025F0009E8F8D8F81E060E041E00E94D80D81E0E8
:1026000061E041E00E94D80D81E062E040E00E947C
:10261000D80D81E063E041E00E94D80D80E090E0B9
:10262000A0E0B0E4898F9A8FAB8FBC8F698D7A8DD3
:102630008B8D9C8D20E030E04AEF54E40E941F0215
:10264000DC01CB018D8B9E8BAF8BB88F6D897E8922
:102650008F89988D20E030E040E85FE30E947903A5
:1026600088232CF481E090E09C8B8B8B3FC06D899C
:102670007E898F89988D20E03FEF4FE757E40E94D5
:10268000190318164CF5698D7A8D8B8D9C8D20E081
:1026900030E040E251E40E941F02DC01CB01BC01AA
:1026A000CD010E944900DC01CB019C8B8B8B0FC0BC
:1026B00088EC90E09A8B898B89899A890197F1F748
:1026C0009A8B898B8B899C8901979C8B8B8B8B89AF
:1026D0009C89009769F714C06D897E898F89988DD0
:1026E0000E944900DC01CB019C8B8B8B8B899C89E0
:1026F000988B8F878F8598890197F1F7988B8F87B3
:1027000081E060E041E00E94D80D81E061E041E0BD
:102710000E94D80D81E062E041E00E94D80D81E086
:1027200063E040E00E94D80D80E090E0A0E0B0E4DB
:102730008B879C87AD87BE876B857C858D859E85C5
:1027400020E030E04AEF54E40E941F02DC01CB019C
:102750008F839887A987BA876F81788589859A85BD
:1027600020E030E040E85FE30E94790388232CF406
:1027700081E090E09E838D833FC06F81788589855D
:102780009A8520E03FEF4FE757E40E94190318169F
:102790004CF56B857C858D859E8520E030E040E2A0
:1027A00051E40E941F02DC01CB01BC01CD010E945B
:1027B0004900DC01CB019E838D830FC088EC90E043
:1027C0009C838B838B819C810197F1F79C838B8306
:1027D0008D819E8101979E838D838D819E8100973F
:1027E00069F714C06F81788589859A850E944900B0
:1027F000DC01CB019E838D838D819E819A838983A9
:1028000089819A810197F1F79A838983E8960FB6B7
:10281000F894DEBF0FBECDBFCF91DF910895DF9357
:10282000CF93CDB7DEB7E8970FB6F894DEBF0FBEF3
:10283000CDBF81E060E040E00E94D80D81E061E022
:1028400041E00E94D80D81E062E041E00E94D80D95
:1028500081E063E041E00E94D80D80E090E0A0E0DC
:10286000B0E48DAB9EABAFABB8AF6DA97EA98FA91D
:1028700098AD20E030E04AEF54E40E941F02DC01F2
:10288000CB0189AB9AABABABBCAB69A97AA98BA9DD
:102890009CA920E030E040E85FE30E9479038823B0
:1028A0002CF481E090E098AB8FA73FC069A97AA98A
:1028B0008BA99CA920E03FEF4FE757E40E94190342
:1028C00018164CF56DA97EA98FA998AD20E030E0CF
:1028D00040E251E40E941F02DC01CB01BC01CD01AA
:1028E0000E944900DC01CB0198AB8FA70FC088EC98
:1028F00090E09EA78DA78DA59EA50197F1F79EA7B5
:102900008DA78FA598A9019798AB8FA78FA598A998
:10291000009769F714C069A97AA98BA99CA90E949C
:102920004900DC01CB0198AB8FA78FA598A99CA784
:102930008BA78BA59CA50197F1F79CA78BA781E09E
:1029400060E041E00E94D80D81E061E041E00E943A
:10295000D80D81E062E041E00E94D80D81E063E0A3
:1029600040E00E94D80D80E090E0A0E0B0E48FA3AA
:1029700098A7A9A7BAA76FA178A589A59AA520E0CD
:1029800030E04AEF54E40E941F02DC01CB018BA32C
:102990009CA3ADA3BEA36BA17CA18DA19EA120E0B1
:1029A00030E040E85FE30E94790388232CF481E063
:1029B00090E09AA389A33FC06BA17CA18DA19EA1A9
:1029C00020E03FEF4FE757E40E94190318164CF53B
:1029D0006FA178A589A59AA520E030E040E251E4F6
:1029E0000E941F02DC01CB01BC01CD010E94490005
:1029F000DC01CB019AA389A30FC088EC90E098A3D7
:102A00008F8F8F8D98A10197F1F798A38F8F89A150
:102A10009AA101979AA389A389A19AA1009769F71E
:102A200014C06BA17CA18DA19EA10E944900DC0174
:102A3000CB019AA389A389A19AA19E8F8D8F8D8D99
:102A40009E8D0197F1F79E8F8D8F81E060E041E0D0
:102A50000E94D80D81E061E041E00E94D80D81E044
:102A600062E040E00E94D80D81E063E041E00E9416
:102A7000D80D80E090E0A0E0B0E4898F9A8FAB8F12
:102A8000BC8F698D7A8D8B8D9C8D20E030E04AEF74
:102A900054E40E941F02DC01CB018D8B9E8BAF8B17
:102AA000B88F6D897E898F89988D20E030E040E86D
:102AB0005FE30E94790388232CF481E090E09C8BF3
:102AC0008B8B3FC06D897E898F89988D20E03FEF89
:102AD0004FE757E40E94190318164CF5698D7A8D5B
:102AE0008B8D9C8D20E030E040E251E40E941F027B
:102AF000DC01CB01BC01CD010E944900DC01CB010E
:102B00009C8B8B8B0FC088EC90E09A8B898B89898A
:102B10009A890197F1F79A8B898B8B899C89019708
:102B20009C8B8B8B8B899C89009769F714C06D896E
:102B30007E898F89988D0E944900DC01CB019C8B96
:102B40008B8B8B899C89988B8F878F859889019730
:102B5000F1F7988B8F8781E060E041E00E94D80D0B
:102B600081E061E040E00E94D80D81E062E041E058
:102B70000E94D80D81E063E041E00E94D80D80E022
:102B800090E0A0E0B0E48B879C87AD87BE876B8523
:102B90007C858D859E8520E030E04AEF54E40E94DC
:102BA0001F02DC01CB018F839887A987BA876F81C9
:102BB000788589859A8520E030E040E85FE30E94CF
:102BC000790388232CF481E090E09E838D833FC0BD
:102BD0006F81788589859A8520E03FEF4FE757E43C
:102BE0000E94190318164CF56B857C858D859E8592
:102BF00020E030E040E251E40E941F02DC01CB0102
:102C0000BC01CD010E944900DC01CB019E838D8374
:102C10000FC088EC90E09C838B838B819C81019713
:102C2000F1F79C838B838D819E8101979E838D8399
:102C30008D819E81009769F714C06F8178858985A1
:102C40009A850E944900DC01CB019E838D838D8192
:102C50009E819A83898389819A810197F1F79A836A
:102C60008983E8960FB6F894DEBF0FBECDBFCF9133
:102C7000DF9108950F931F93DF93CF93CDB7DEB706
:102C8000C057D0400FB6F894DEBF0FBECDBF81E075
:102C900060E040E00E94D80D81E061E041E00E94E8
:102CA000D80D81E062E041E00E94D80D81E063E050
:102CB00040E00E94D80DFE01E359FF4F80E090E014
:102CC000A0E0B0E480839183A283B3838E0107598F
:102CD0001F4FFE01E359FF4F608171818281938113
:102CE00020E030E04AEF54E40E941F02DC01CB01F7
:102CF000F80180839183A283B383FE01E759FF4FDC
:102D0000608171818281938120E030E040E85FE35F
:102D10000E947903882344F4FE01E959FF4F81E0C2
:102D200090E09183808364C0FE01E759FF4F60818A
:102D300071818281938120E03FEF4FE757E40E9449
:102D4000190318160CF043C0FE01E359FF4F6081D0
:102D500071818281938120E030E040E251E40E9461
:102D60001F02DC01CB018E0109591F4FBC01CD01AF
:102D70000E944900DC01CB01F801918380831FC0D0
:102D8000FE01EB59FF4F88EC90E091838083FE01B8
:102D9000EB59FF4F808191810197F1F7FE01EB59CB
:102DA000FF4F91838083DE01A959BF4FFE01E9598E
:102DB000FF4F80819181019711969C938E93FE0124
:102DC000E959FF4F808191810097D1F627C08E018C
:102DD00009591F4FFE01E759FF4F608171818281C0
:102DE00093810E944900DC01CB01F801918380832B
:102DF000DE01AD59BF4FFE01E959FF4F808191813E
:102E00008D939C93FE01ED59FF4F80819181019735
:102E1000F1F7FE01ED59FF4F9183808381E060E07F
:102E200040E00E94D80D81E061E041E00E94D80DB1
:102E300081E062E041E00E94D80D81E063E041E082
:102E40000E94D80DFE01E15AFF4F80E090E0A0E023
:102E5000B0E480839183A283B3838E01055A1F4F10
:102E6000FE01E15AFF4F608171818281938120E0F0
:102E700030E04AEF54E40E941F02DC01CB01F8016C
:102E800080839183A283B383FE01E55AFF4F608163
:102E900071818281938120E030E040E85FE30E940D
:102EA0007903882344F4FE01E75AFF4F81E090E064
:102EB0009183808364C0FE01E55AFF4F6081718178
:102EC0008281938120E03FEF4FE757E40E9419038E
:102ED00018160CF043C0FE01E15AFF4F608171816A
:102EE0008281938120E030E040E251E40E941F02A1
:102EF000DC01CB018E01075A1F4FBC01CD010E949E
:102F00004900DC01CB01F801918380831FC0FE01E1
:102F1000E95AFF4F88EC90E091838083FE01E95AE3
:102F2000FF4F808191810197F1F7FE01E95AFF4F30
:102F300091838083DE01A75ABF4FFE01E75AFF4FFE
:102F400080819181019711969C938E93FE01E75A9F
:102F5000FF4F808191810097D1F627C08E01075ADB
:102F60001F4FFE01E55AFF4F60817181828193817D
:102F70000E944900DC01CB01F80191838083DE01CE
:102F8000AB5ABF4FFE01E75AFF4F808191818D936D
:102F90009C93FE01EB5AFF4F808191810197F1F7DD
:102FA000FE01EB5AFF4F9183808381E060E040E0B7
:102FB0000E94D80D81E061E040E00E94D80D81E0E0
:102FC00062E041E00E94D80D81E063E041E00E94B0
:102FD000D80DFE01EF5AFF4F80E090E0A0E0B0E492
:102FE00080839183A283B3838E01035B1F4FFE0115
:102FF000EF5AFF4F608171818281938120E030E040
:103000004AEF54E40E941F02DC01CB01F8018083E7
:103010009183A283B383FE01E35BFF4F60817181E3
:103020008281938120E030E040E85FE30E947903F1
:10303000882344F4FE01E55BFF4F81E090E091833B
:10304000808364C0FE01E35BFF4F608171818281F8
:10305000938120E03FEF4FE757E40E9419031816D1
:103060000CF043C0FE01EF5AFF4F608171818281F5
:10307000938120E030E040E251E40E941F02DC0135
:10308000CB018E01055B1F4FBC01CD010E944900A1
:10309000DC01CB01F801918380831FC0FE01E75B57
:1030A000FF4F88EC90E091838083FE01E75BFF4F48
:1030B000808191810197F1F7FE01E75BFF4F9183DA
:1030C0008083DE01A55BBF4FFE01E55BFF4F808182
:1030D0009181019711969C938E93FE01E55BFF4FC2
:1030E000808191810097D1F627C08E01055B1F4F2B
:1030F000FE01E35BFF4F60817181828193810E94B9
:103100004900DC01CB01F80191838083DE01A95BDA
:10311000BF4FFE01E55BFF4F808191818D939C93B2
:10312000FE01E95BFF4F808191810197F1F7FE017C
:10313000E95BFF4F9183808381E060E041E00E9482
:10314000D80D81E061E040E00E94D80D81E062E0AE
:1031500041E00E94D80D81E063E041E00E94D80D7B
:10316000FE01ED5BFF4F80E090E0A0E0B0E48083E3
:103170009183A283B3838E01015C1F4FFE01ED5B3F
:10318000FF4F608171818281938120E030E04AEFBE
:1031900054E40E941F02DC01CB01F801808391837B
:1031A000A283B383FE01FF96608171818281938146
:1031B00020E030E040E85FE30E94790388232CF4AC
:1031C00081E090E09EAF8DAF46C0FE01FF9660812A
:1031D00071818281938120E03FEF4FE757E40E94A5
:1031E0001903181664F5FE01ED5BFF4F60817181D4
:1031F0008281938120E030E040E251E40E941F028E
:10320000DC01CB01BC01CD010E944900DC01CB01F6
:103210009EAF8DAF0FC088EC90E09CAF8BAF8BADB5
:103220009CAD0197F1F79CAF8BAF8DAD9EAD019733
:103230009EAF8DAF8DAD9EAD009769F716C0FE01B4
:10324000FF9660817181828193810E944900DC0137
:10325000CB019EAF8DAF8DAD9EAD9AAF89AF89ADDD
:103260009AAD0197F1F79AAF89AF81E060E041E054
:103270000E94D80D81E061E040E00E94D80D81E01D
:1032800062E040E00E94D80D81E063E041E00E94EE
:10329000D80D80E090E0A0E0B0E48DAB9EABAFAB8A
:1032A000B8AF6DA97EA98FA998AD20E030E04AEFB4
:1032B00054E40E941F02DC01CB0189AB9AABABAB9B
:1032C000BCAB69A97AA98BA99CA920E030E040E8B1
:1032D0005FE30E94790388232CF481E090E098ABAF
:1032E0008FA73FC069A97AA98BA99CA920E03FEFCD
:1032F0004FE757E40E94190318164CF56DA97EA9F3
:103300008FA998AD20E030E040E251E40E941F0216
:10331000DC01CB01BC01CD010E944900DC01CB01E5
:1033200098AB8FA70FC088EC90E09EA78DA78DA5C6
:103330009EA50197F1F79EA78DA78FA598A9019744
:1033400098AB8FA78FA598A9009769F714C069A9B2
:103350007AA98BA99CA90E944900DC01CB0198ABFA
:103360008FA78FA598A99CA78BA78BA59CA5019734
:10337000F1F79CA78BA781E060E041E00E94D80DA7
:1033800081E061E041E00E94D80D81E062E040E030
:103390000E94D80D81E063E041E00E94D80D80E0FA
:1033A00090E0A0E0B0E48FA398A7A9A7BAA76FA167
:1033B00078A589A59AA520E030E04AEF54E40E9460
:1033C0001F02DC01CB018BA39CA3ADA3BEA36BA109
:1033D0007CA18DA19EA120E030E040E85FE30E9447
:1033E000790388232CF481E090E09AA389A33FC05D
:1033F0006BA17CA18DA19EA120E03FEF4FE757E498
:103400000E94190318164CF56FA178A589A59AA5F5
:1034100020E030E040E251E40E941F02DC01CB01D9
:10342000BC01CD010E944900DC01CB019AA389A314
:103430000FC088EC90E098A38F8F8F8D98A1019793
:10344000F1F798A38F8F89A19AA101979AA389A3D5
:1034500089A19AA1009769F714C06BA17CA18DA1E5
:103460009EA10E944900DC01CB019AA389A389A1F6
:103470009AA19E8F8D8F8D8D9E8D0197F1F79E8FD6
:103480008D8F81E060E041E00E94D80D81E061E035
:1034900041E00E94D80D81E062E040E00E94D80D3A
:1034A00081E063E040E00E94D80D80E090E0A0E081
:1034B000B0E4898F9A8FAB8FBC8F698D7A8D8B8D9D
:1034C0009C8D20E030E04AEF54E40E941F02DC01B2
:1034D000CB018D8B9E8BAF8BB88F6D897E898F8949
:1034E000988D20E030E040E85FE30E947903882374
:1034F0002CF481E090E09C8B8B8B3FC06D897E89A2
:103500008F89988D20E03FEF4FE757E40E94190321
:1035100018164CF5698D7A8D8B8D9C8D20E030E0EE
:1035200040E251E40E941F02DC01CB01BC01CD014D
:103530000E944900DC01CB019C8B8B8B0FC088EC77
:1035400090E09A8B898B89899A890197F1F79A8BF8
:10355000898B8B899C8901979C8B8B8B8B899C8910
:10356000009769F714C06D897E898F89988D0E94B4
:103570004900DC01CB019C8B8B8B8B899C89988BC0
:103580008F878F8598890197F1F7988B8F8781E0D6
:1035900060E041E00E94D80D81E061E041E00E94DE
:1035A000D80D81E062E041E00E94D80D81E063E047
:1035B00040E00E94D80D80E090E0A0E0B0E48B876E
:1035C0009C87AD87BE876B857C858D859E8520E039
:1035D00030E04AEF54E40E941F02DC01CB018F83EC
:1035E0009887A987BA876F81788589859A8520E031
:1035F00030E040E85FE30E94790388232CF481E007
:1036000090E09E838D833FC06F81788589859A8500
:1036100020E03FEF4FE757E40E94190318164CF5DE
:103620006B857C858D859E8520E030E040E251E40D
:103630000E941F02DC01CB01BC01CD010E944900A8
:10364000DC01CB019E838D830FC088EC90E09C83CE
:103650008B838B819C810197F1F79C838B838D8178
:103660009E8101979E838D838D819E81009769F74E
:1036700014C06F81788589859A850E944900DC0194
:10368000CB019E838D838D819E819A8389838981DD
:103690009A810197F1F79A838983C059DF4F0FB65A
:1036A000F894DEBF0FBECDBFCF91DF911F910F9178
:1036B00008950F931F93DF93CF93CDB7DEB7C05715
:1036C000D0400FB6F894DEBF0FBECDBF81E060E002
:1036D00040E00E94D80D81E061E041E00E94D80DF9
:1036E00081E062E041E00E94D80D81E063E040E0CB
:1036F0000E94D80DFE01E359FF4F80E090E0A0E06A
:10370000B0E480839183A283B3838E0107591F4F56
:10371000FE01E359FF4F608171818281938120E036
:1037200030E04AEF54E40E941F02DC01CB01F801B3
:1037300080839183A283B383FE01E759FF4F6081A9
:1037400071818281938120E030E040E85FE30E9454
:103750007903882344F4FE01E959FF4F81E090E0AA
:103760009183808364C0FE01E759FF4F60817181BE
:103770008281938120E03FEF4FE757E40E941903D5
:1037800018160CF043C0FE01E359FF4F60817181B0
:103790008281938120E030E040E251E40E941F02E8
:1037A000DC01CB018E0109591F4FBC01CD010E94E4
:1037B0004900DC01CB01F801918380831FC0FE0129
:1037C000EB59FF4F88EC90E091838083FE01EB5929
:1037D000FF4F808191810197F1F7FE01EB59FF4F77
:1037E00091838083DE01A959BF4FFE01E959FF4F44
:1037F00080819181019711969C938E93FE01E959E6
:10380000FF4F808191810097D1F627C08E01095921
:103810001F4FFE01E759FF4F6081718182819381C3
:103820000E944900DC01CB01F80191838083DE0115
:10383000AD59BF4FFE01E959FF4F808191818D93B2
:103840009C93FE01ED59FF4F808191810197F1F723
:10385000FE01ED59FF4F9183808381E060E041E0FC
:103860000E94D80D81E061E041E00E94D80D81E026
:1038700062E041E00E94D80D81E063E040E00E94F8
:10388000D80DFE01E15AFF4F80E090E0A0E0B0E4E7
:1038900080839183A283B3838E01055A1F4FFE015B
:1038A000E15AFF4F608171818281938120E030E095
:1038B0004AEF54E40E941F02DC01CB01F80180832F
:1038C0009183A283B383FE01E55AFF4F608171812A
:1038D0008281938120E030E040E85FE30E94790339
:1038E000882344F4FE01E75AFF4F81E090E0918382
:1038F000808364C0FE01E55AFF4F6081718182813F
:10390000938120E03FEF4FE757E40E941903181618
:103910000CF043C0FE01E15AFF4F6081718182814A
:10392000938120E030E040E251E40E941F02DC017C
:10393000CB018E01075A1F4FBC01CD010E944900E7
:10394000DC01CB01F801918380831FC0FE01E95A9D
:10395000FF4F88EC90E091838083FE01E95AFF4F8E
:10396000808191810197F1F7FE01E95AFF4F918320
:103970008083DE01A75ABF4FFE01E75AFF4F8081C7
:103980009181019711969C938E93FE01E75AFF4F08
:10399000808191810097D1F627C08E01075A1F4F71
:1039A000FE01E55AFF4F60817181828193810E94FF
:1039B0004900DC01CB01F80191838083DE01AB5A21
:1039C000BF4FFE01E75AFF4F808191818D939C93F9
:1039D000FE01EB5AFF4F808191810197F1F7FE01C3
:1039E000EB5AFF4F9183808381E060E041E00E94C9
:1039F000D80D81E061E041E00E94D80D81E062E0F5
:103A000040E00E94D80D81E063E040E00E94D80DC4
:103A1000FE01EF5AFF4F80E090E0A0E0B0E4808329
:103A20009183A283B3838E01035B1F4FFE01EF5A84
:103A3000FF4F608171818281938120E030E04AEF05
:103A400054E40E941F02DC01CB01F80180839183C2
:103A5000A283B383FE01E35BFF4F608171818281AA
:103A6000938120E030E040E85FE30E9479038823FF
:103A700044F4FE01E55BFF4F81E090E09183808399
:103A800064C0FE01E35BFF4F60817181828193819D
:103A900020E03FEF4FE757E40E94190318160CF09F
:103AA00043C0FE01EF5AFF4F608171818281938193
:103AB00020E030E040E251E40E941F02DC01CB0133
:103AC0008E01055B1F4FBC01CD010E944900DC0146
:103AD000CB01F801918380831FC0FE01E75BFF4F9C
:103AE00088EC90E091838083FE01E75BFF4F80814B
:103AF00091810197F1F7FE01E75BFF4F918380838E
:103B0000DE01A55BBF4FFE01E55BFF4F8081918128
:103B1000019711969C938E93FE01E55BFF4F808188
:103B200091810097D1F627C08E01055B1F4FFE01E2
:103B3000E35BFF4F60817181828193810E94490024
:103B4000DC01CB01F80191838083DE01A95BBF4FCB
:103B5000FE01E55BFF4F808191818D939C93FE0177
:103B6000E95BFF4F808191810197F1F7FE01E95BED
:103B7000FF4F9183808381E060E041E00E94D80D97
:103B800081E061E041E00E94D80D81E062E040E028
:103B90000E94D80D81E063E041E00E94D80DFE0153
:103BA000ED5BFF4F80E090E0A0E0B0E48083918384
:103BB000A283B3838E01015C1F4FFE01ED5BFF4FBB
:103BC000608171818281938120E030E04AEF54E48A
:103BD0000E941F02DC01CB01F80180839183A28344
:103BE000B383FE01FF96608171818281938120E021
:103BF00030E040E85FE30E94790388232CF481E001
:103C000090E09EAF8DAF46C0FE01FF96608171814E
:103C10008281938120E03FEF4FE757E40E94190330
:103C2000181664F5FE01ED5BFF4F608171818281A2
:103C3000938120E030E040E251E40E941F02DC0169
:103C4000CB01BC01CD010E944900DC01CB019EAF3C
:103C50008DAF0FC088EC90E09CAF8BAF8BAD9CAD6F
:103C60000197F1F79CAF8BAF8DAD9EAD01979EAFE5
:103C70008DAF8DAD9EAD009769F716C0FE01FF9622
:103C800060817181828193810E944900DC01CB01B6
:103C90009EAF8DAF8DAD9EAD9AAF89AF89AD9AAD18
:103CA0000197F1F79AAF89AF81E060E041E00E94AF
:103CB000D80D81E061E040E00E94D80D81E062E033
:103CC00040E00E94D80D81E063E041E00E94D80D01
:103CD00080E090E0A0E0B0E48DAB9EABAFABB8AFBE
:103CE0006DA97EA98FA998AD20E030E04AEF54E499
:103CF0000E941F02DC01CB0189AB9AABABABBCAB22
:103D000069A97AA98BA99CA920E030E040E85FE38B
:103D10000E94790388232CF481E090E098AB8FA770
:103D20003FC069A97AA98BA99CA920E03FEF4FE782
:103D300057E40E94190318164CF56DA97EA98FA9A6
:103D400098AD20E030E040E251E40E941F02DC0127
:103D5000CB01BC01CD010E944900DC01CB0198AB35
:103D60008FA70FC088EC90E09EA78DA78DA59EA57C
:103D70000197F1F79EA78DA78FA598A9019798ABFA
:103D80008FA78FA598A9009769F714C069A97AA988
:103D90008BA99CA90E944900DC01CB0198AB8FA79D
:103DA0008FA598A99CA78BA78BA59CA50197F1F738
:103DB0009CA78BA781E060E041E00E94D80D81E0E4
:103DC00061E040E00E94D80D81E062E041E00E94A5
:103DD000D80D81E063E041E00E94D80D80E090E0E2
:103DE000A0E0B0E48FA398A7A9A7BAA76FA178A570
:103DF00089A59AA520E030E04AEF54E40E941F0212
:103E0000DC01CB018BA39CA3ADA3BEA36BA17CA1C2
:103E10008DA19EA120E030E040E85FE30E9479039D
:103E200088232CF481E090E09AA389A33FC06BA182
:103E30007CA18DA19EA120E03FEF4FE757E40E94B7
:103E4000190318164CF56FA178A589A59AA520E04D
:103E500030E040E251E40E941F02DC01CB01BC01D2
:103E6000CD010E944900DC01CB019AA389A30FC0B8
:103E700088EC90E098A38F8F8F8D98A10197F1F730
:103E800098A38F8F89A19AA101979AA389A389A149
:103E90009AA1009769F714C06BA17CA18DA19EA186
:103EA0000E944900DC01CB019AA389A389A19AA1B0
:103EB0009E8F8D8F8D8D9E8D0197F1F79E8F8D8FAB
:103EC00081E060E040E00E94D80D81E061E040E0E8
:103ED0000E94D80D81E062E041E00E94D80D81E0AF
:103EE00063E041E00E94D80D80E090E0A0E0B0E403
:103EF000898F9A8FAB8FBC8F698D7A8D8B8D9C8DBE
:103F000020E030E04AEF54E40E941F02DC01CB01C4
:103F10008D8B9E8BAF8BB88F6D897E898F89988DA5
:103F200020E030E040E85FE30E94790388232CF42E
:103F300081E090E09C8B8B8B3FC06D897E898F895F
:103F4000988D20E03FEF4FE757E40E9419031816C1
:103F50004CF5698D7A8D8B8D9C8D20E030E040E2B0
:103F600051E40E941F02DC01CB01BC01CD010E9483
:103F70004900DC01CB019C8B8B8B0FC088EC90E05F
:103F80009A8B898B89899A890197F1F79A8B898B0A
:103F90008B899C8901979C8B8B8B8B899C89009743
:103FA00069F714C06D897E898F89988D0E944900B8
:103FB000DC01CB019C8B8B8B8B899C89988B8F87A9
:103FC0008F8598890197F1F7988B8F8781E060E062
:103FD00040E00E94D80D81E061E041E00E94D80DF0
:103FE00081E062E041E00E94D80D81E063E041E0C1
:103FF0000E94D80D80E090E0A0E0B0E48B879C8721
:10400000AD87BE876B857C858D859E8520E030E001
:104010004AEF54E40E941F02DC01CB018F83988792
:10402000A987BA876F81788589859A8520E030E0F5
:1040300040E85FE30E94790388232CF481E090E05C
:104040009E838D833FC06F81788589859A8520E026
:104050003FEF4FE757E40E94190318164CF56B85A4
:104060007C858D859E8520E030E040E251E40E9411
:104070001F02DC01CB01BC01CD010E944900DC0123
:10408000CB019E838D830FC088EC90E09C838B8353
:104090008B819C810197F1F79C838B838D819E811D
:1040A00001979E838D838D819E81009769F714C04F
:1040B0006F81788589859A850E944900DC01CB0152
:1040C0009E838D838D819E819A83898389819A8144
:1040D0000197F1F79A838983C059DF4F0FB6F8949F
:1040E000DEBF0FBECDBFCF91DF911F910F9108951D
:1040F000DF93CF93CDB7DEB70E94810783E065E001
:1041000041E00E945B0BCF91DF910895DF93CF9345
:1041100000D00F92CDB7DEB78B8380E29EE40E9481
:104120001C0880E062E00E94A4078B81882F90E049
:104130009C01220F331FC901880F991F880F991FF7
:10414000820F931F82519D4F9A83898329813A81DF
:1041500080E0B9010E94EE070F900F900F90CF9171
:10416000DF910895DF93CF9300D000D0CDB7DEB7B5
:1041700089836A838981282F30E03C832B838B815C
:104180009C8181309105D9F02B813C812230310511
:104190002CF48B819C81009761F022C02B813C81A3
:1041A0002230310591F08B819C818330910599F00B
:1041B00017C080E06A8141E00E945B0B11C081E082
:1041C0006A8141E00E945B0B0BC082E06A8141E0A2
:1041D0000E945B0B05C083E06A8141E00E945B0B9B
:1041E0000F900F900F900F90CF91DF910895DF9374
:1041F000CF9300D00F92CDB7DEB789838981282F66
:1042000030E03B832A838A819B8181309105D1F004
:104210002A813B81223031052CF48A819B810097D1
:1042200061F01EC02A813B812230310581F08A81F4
:104230009B818330910581F013C080E06FEF0E9475
:10424000250D0EC081E06FEF0E94250D09C082E0B0
:104250006FEF0E94250D04C083E06FEF0E94250DD3
:104260000F900F900F90CF91DF910895DF93CF9330
:10427000CDB7DEB727970FB6F894DEBF0FBECDBF20
:1042800089836A834B838B818130B9F58981282F9B
:1042900030E03F832E838E819F8181309105D9F05C
:1042A0002E813F81223031052CF48E819F81009731
:1042B00061F05CC02E813F812230310591F08E810A
:1042C0009F818330910599F051C080E06A8141E07F
:1042D0000E94D80D4BC081E06A8141E00E94D80D58
:1042E00045C082E06A8141E00E94D80D3FC083E072
:1042F0006A8141E00E94D80D39C08B818823B1F5D5
:104300008981282F30E03D832C838C819D818130F1
:104310009105D9F02C813D81223031052CF48C811E
:104320009D81009761F022C02C813D8122303105B2
:1043300091F08C819D818330910599F017C080E0C8
:104340006A8140E00E94D80D11C081E06A8140E09E
:104350000E94D80D0BC082E06A8140E00E94D80D17
:1043600005C083E06A8140E00E94D80D27960FB611
:10437000F894DEBF0FBECDBFCF91DF910895DF93DC
:10438000CF93CDB7DEB727970FB6F894DEBF0FBE39
:10439000CDBF89836A834B838B818130B9F5898155
:1043A000282F30E03F832E838E819F8181309105BD
:1043B000D9F02E813F81223031052CF48E819F81EE
:1043C000009761F05CC02E813F812230310591F071
:1043D0008E819F818330910599F051C080E06A8180
:1043E00040E00E94D80D4BC081E06A8140E00E940D
:1043F000D80D45C082E06A8140E00E94D80D3FC0E0
:1044000083E06A8140E00E94D80D39C08B81882307
:10441000B1F58981282F30E03D832C838C819D81EB
:1044200081309105D9F02C813D81223031052CF469
:104430008C819D81009761F022C02C813D812230CA
:10444000310591F08C819D818330910599F017C0E1
:1044500080E06A8141E00E94D80D11C081E06A814C
:1044600041E00E94D80D0BC082E06A8141E00E94C9
:10447000D80D05C083E06A8141E00E94D80D2796DF
:104480000FB6F894DEBF0FBECDBFCF91DF91089578
:10449000DF93CF9300D000D000D0CDB7DEB78983B3
:1044A0006A838A81813099F58981282F30E03E83A3
:1044B0002D838D819E8181309105D1F02D813E81AA
:1044C000223031052CF48D819E81009761F054C01B
:1044D0002D813E812230310581F08D819E81833096
:1044E000910581F049C080E06FEF0E94130F44C036
:1044F00081E06FEF0E94130F3FC082E06FEF0E94D8
:10450000130F3AC083E06FEF0E94130F35C08A810A
:10451000882391F58981282F30E03C832B838B8180
:104520009C8181309105D1F02B813C812230310575
:104530002CF48B819C81009761F01EC02B813C8103
:104540002230310581F08B819C818330910581F08F
:1045500013C080E060E00E94130F0EC081E060E0B5
:104560000E94130F09C082E060E00E94130F04C094
:1045700083E060E00E94130F26960FB6F894DEBF2A
:104580000FBECDBFCF91DF910895DF93CF9300D0C1
:1045900000D000D0CDB7DEB789836A838A818130AD
:1045A00099F58981282F30E03E832D838D819E816E
:1045B00081309105D1F02D813E81223031052CF4DE
:1045C0008D819E81009761F054C02D813E81223003
:1045D000310581F08D819E818330910581F049C044
:1045E00080E060E00E94130F44C081E060E00E9420
:1045F000130F3FC082E060E00E94130F3AC083E0D7
:1046000060E00E94130F35C08A81882391F589816B
:10461000282F30E03C832B838B819C818130910556
:10462000D1F02B813C81223031052CF48B819C818F
:10463000009761F01EC02B813C812230310581F052
:104640008B819C818330910581F013C080E06FEFF6
:104650000E94130F0EC081E06FEF0E94130F09C07C
:1046600082E06FEF0E94130F04C083E06FEF0E949F
:10467000130F26960FB6F894DEBF0FBECDBFCF91B5
:10468000DF910895DF93CF9300D000D0CDB7DEB790
:1046900089836A838981282F30E03C832B838B8137
:1046A0009C8181309105D1F02B813C8122303105F4
:1046B0002CF48B819C81009761F01EC02B813C8182
:1046C0002230310581F08B819C818330910581F00E
:1046D00013C080E06A810E941C100EC081E06A81D4
:1046E0000E941C1009C082E06A810E941C1004C054
:1046F00083E06A810E941C100F900F900F900F9022
:10470000CF91DF910895DF93CF9300D00F92CDB773
:10471000DEB789838981282F30E03B832A838A8111
:104720009B8181309105C9F02A813B81223031057E
:104730002CF48A819B81009761F01AC02A813B8109
:104740002230310571F08A819B818330910569F0B7
:104750000FC080E00E94A1100BC081E00E94A11058
:1047600007C082E00E94A11003C083E00E94A11054
:104770000F900F900F90CF91DF9108950F931F939B
:10478000DF93CF93CDB7DEB7C455D0400FB6F894C2
:10479000DEBF0FBECDBF80E067E041E00E945B0B53
:1047A00080E066E041E00E945B0B80E065E041E074
:1047B0000E945B0B82E06FEF0E94250DFE01EF5A15
:1047C000FF4F80E090E0A0EFB1E480839183A2836B
:1047D000B3838E01035B1F4FFE01EF5AFF4F6081D1
:1047E00071818281938120E030E04AEF54E40E949D
:1047F0001F02DC01CB01F80180839183A283B38384
:10480000FE01E35BFF4F608171818281938120E033
:1048100030E040E85FE30E947903882344F4FE011E
:10482000E55BFF4F81E090E09183808364C0FE01EF
:10483000E35BFF4F608171818281938120E03FEFD4
:104840004FE757E40E94190318160CF043C0FE010D
:10485000EF5AFF4F608171818281938120E030E0C7
:1048600040E251E40E941F02DC01CB018E01055B96
:104870001F4FBC01CD010E944900DC01CB01F801B2
:10488000918380831FC0FE01E75BFF4F88EC90E0BF
:1048900091838083FE01E75BFF4F808191810197C7
:1048A000F1F7FE01E75BFF4F91838083DE01A55B9B
:1048B000BF4FFE01E55BFF4F80819181019711960B
:1048C0009C938E93FE01E55BFF4F80819181009761
:1048D000D1F627C08E01055B1F4FFE01E35BFF4F42
:1048E00060817181828193810E944900DC01CB014A
:1048F000F80191838083DE01A95BBF4FFE01E55B78
:10490000FF4F808191818D939C93FE01E95BFF4F66
:10491000808191810197F1F7FE01E95BFF4F91835F
:10492000808382E00E94F926FE01ED5BFF4F80E06C
:1049300090E0A0E7B1E480839183A283B3838E01EA
:10494000015C1F4FFE01ED5BFF4F60817181828131
:10495000938120E030E04AEF54E40E941F02DC0122
:10496000CB01F80180839183A283B383FE01FF967C
:10497000608171818281938120E030E040E85FE3D3
:104980000E94790388232CF481E090E09EAF8DAFE4
:1049900046C0FE01FF96608171818281938120E093
:1049A0003FEF4FE757E40E941903181664F5FE0124
:1049B000ED5BFF4F608171818281938120E030E067
:1049C00040E251E40E941F02DC01CB01BC01CD0199
:1049D0000E944900DC01CB019EAF8DAF0FC088EC77
:1049E00090E09CAF8BAF8BAD9CAD0197F1F79CAF86
:1049F0008BAF8DAD9EAD01979EAF8DAF8DAD9EAD52
:104A0000009769F716C0FE01FF966081718182816F
:104A100093810E944900DC01CB019EAF8DAF8DAD2B
:104A20009EAD9AAF89AF89AD9AAD0197F1F79AAF74
:104A300089AF88E30E94F92680E090E0A0E8BFE318
:104A40008DAB9EABAFABB8AF6DA97EA98FA998AD6A
:104A500020E030E04AEF54E40E941F02DC01CB0169
:104A600089AB9AABABABBCAB69A97AA98BA99CA962
:104A700020E030E040E85FE30E94790388232CF4D3
:104A800081E090E098AB8FA73FC069A97AA98BA974
:104A90009CA920E03FEF4FE757E40E941903181646
:104AA0004CF56DA97EA98FA998AD20E030E040E2D9
:104AB00051E40E941F02DC01CB01BC01CD010E9428
:104AC0004900DC01CB0198AB8FA70FC088EC90E0C8
:104AD0009EA78DA78DA59EA50197F1F79EA78DA7EF
:104AE0008FA598A9019798AB8FA78FA598A9009734
:104AF00069F714C069A97AA98BA99CA90E944900E9
:104B0000DC01CB0198AB8FA78FA598A99CA78BA799
:104B10008BA59CA50197F1F79CA78BA78CE00E9421
:104B2000F92680E090E0A0E8BFE38FA398A7A9A7AB
:104B3000BAA76FA178A589A59AA520E030E04AEF31
:104B400054E40E941F02DC01CB018BA39CA3ADA304
:104B5000BEA36BA17CA18DA19EA120E030E040E826
:104B60005FE30E94790388232CF481E090E09AA30C
:104B700089A33FC06BA17CA18DA19EA120E03FEF46
:104B80004FE757E40E94190318164CF56FA178A55A
:104B900089A59AA520E030E040E251E40E941F027E
:104BA000DC01CB01BC01CD010E944900DC01CB013D
:104BB0009AA389A30FC088EC90E098A38F8F8F8D64
:104BC00098A10197F1F798A38F8F89A19AA10197D6
:104BD0009AA389A389A19AA1009769F714C06BA130
:104BE0007CA18DA19EA10E944900DC01CB019AA36A
:104BF00089A389A19AA19E8F8D8F8D8D9E8D0197FE
:104C0000F1F79E8F8D8F81E00E94F92680E090E081
:104C1000A0E0B0E4898F9A8FAB8FBC8F698D7A8DBD
:104C20008B8D9C8D20E030E04AEF54E40E941F02FF
:104C3000DC01CB018D8B9E8BAF8BB88F6D897E890C
:104C40008F89988D20E030E040E85FE30E9479038F
:104C500088232CF481E090E09C8B8B8B3FC06D8986
:104C60007E898F89988D20E03FEF4FE757E40E94BF
:104C7000190318164CF5698D7A8D8B8D9C8D20E06B
:104C800030E040E251E40E941F02DC01CB01BC0194
:104C9000CD010E944900DC01CB019C8B8B8B0FC0A6
:104CA00088EC90E09A8B898B89899A890197F1F732
:104CB0009A8B898B8B899C8901979C8B8B8B8B8999
:104CC0009C89009769F714C06D897E898F89988DBA
:104CD0000E944900DC01CB019C8B8B8B8B899C89CA
:104CE000988B8F878F8598890197F1F7988B8F879D
:104CF00086E00E94F92680E090E0A0E0B0E48B8797
:104D00009C87AD87BE876B857C858D859E8520E0E1
:104D100030E04AEF54E40E941F02DC01CB018F8394
:104D20009887A987BA876F81788589859A8520E0D9
:104D300030E040E85FE30E94790388232CF481E0AF
:104D400090E09E838D833FC06F81788589859A85A9
:104D500020E03FEF4FE757E40E94190318164CF587
:104D60006B857C858D859E8520E030E040E251E4B6
:104D70000E941F02DC01CB01BC01CD010E94490051
:104D8000DC01CB019E838D830FC088EC90E09C8377
:104D90008B838B819C810197F1F79C838B838D8121
:104DA0009E8101979E838D838D819E81009769F7F7
:104DB00014C06F81788589859A850E944900DC013D
:104DC000CB019E838D838D819E819A838983898186
:104DD0009A810197F1F79A838983CC5ADF4F0FB6F6
:104DE000F894DEBF0FBECDBFCF91DF911F910F9121
:104DF0000895DF93CF93CDB7DEB72F970FB6F89412
:104E0000DEBF0FBECDBF8F8780E066E040E00E942E
:104E1000D80D80E067E040E00E94D80D82E06F8509
:104E20000E94130F80E065E041E00E94D80D80E011
:104E300090E0A0E0B0E48B879C87AD87BE876B8550
:104E40007C858D859E8520E030E04AEF54E40E9409
:104E50001F02DC01CB018F839887A987BA876F81F6
:104E6000788589859A8520E030E040E85FE30E94FC
:104E7000790388232CF481E090E09E838D833FC0EA
:104E80006F81788589859A8520E03FEF4FE757E469
:104E90000E94190318164CF56B857C858D859E85BF
:104EA00020E030E040E251E40E941F02DC01CB012F
:104EB000BC01CD010E944900DC01CB019E838D83A2
:104EC0000FC088EC90E09C838B838B819C81019741
:104ED000F1F79C838B838D819E8101979E838D83C7
:104EE0008D819E81009769F714C06F8178858985CF
:104EF0009A850E944900DC01CB019E838D838D81C0
:104F00009E819A83898389819A810197F1F79A8397
:104F1000898380E065E040E00E94D80D2F960FB6AF
:104F2000F894DEBF0FBECDBFCF91DF910895DF9320
:104F3000CF93CDB7DEB72F970FB6F894DEBF0FBE75
:104F4000CDBF8F8780E066E040E00E94D80D80E012
:104F500067E041E00E94D80D82E06F850E94130F48
:104F600080E065E041E00E94D80D80E090E0A0E0A4
:104F7000B0E48B879C87AD87BE876B857C858D85EC
:104F80009E8520E030E04AEF54E40E941F02DC01DD
:104F9000CB018F839887A987BA876F8178858985A8
:104FA0009A8520E030E040E85FE30E94790388239F
:104FB0002CF481E090E09E838D833FC06F817885E3
:104FC00089859A8520E03FEF4FE757E40E94190357
:104FD00018164CF56B857C858D859E8520E030E02C
:104FE00040E251E40E941F02DC01CB01BC01CD0173
:104FF0000E944900DC01CB019E838D830FC088ECA9
:1050000090E09C838B838B819C810197F1F79C833B
:105010008B838D819E8101979E838D838D819E815F
:10502000009769F714C06F81788589859A850E94F9
:105030004900DC01CB019E838D838D819E819A8303
:10504000898389819A810197F1F79A83898380E026
:1050500065E040E00E94D80D2F960FB6F894DEBFB1
:105060000FBECDBFCF91DF910895DF93CF9300D0D6
:105070000F92CDB7DEB79B838A8319820EC08981D8
:10508000282F30E08A819B81FC01E20FF31F808191
:105090000E94972789818F5F89838981282F30E03B
:1050A0008A819B81FC01E20FF31F8081882339F7FD
:1050B0000F900F900F90CF91DF910895DF93CF93D2
:1050C00000D000D00F92CDB7DEB79D838C831B82BA
:1050D00081E08A83198235C08B81282F30E08C8152
:1050E0009D81FC01E20FF31F80810E9497278B8135
:1050F0008F5F8B838A818F5F8A838A81813108F1F8
:1051000015C082E069810E94B5288B81282F30E08C
:105110008C819D81FC01E20FF31F80810E94972703
:105120008B818F5F8B8389818F5F89838B81282F10
:1051300030E08C819D81FC01E20FF31F8081882388
:1051400001F78B81282F30E08C819D81FC01E20FDB
:10515000F31F8081882309F0BFCF0F900F900F902D
:105160000F900F90CF91DF910895DF93CF9300D0F0
:1051700000D0CDB7DEB789836A838981833010F58B
:1051800089818823F9F08A818823E1F08A8181313D
:10519000C8F48981282F30E03C832B838B819C814C
:1051A0008130910531F02B813C812230310531F085
:1051B00009C08A8181580E94F92604C08A818154DD
:1051C0000E94F9260F900F900F900F90CF91DF91D2
:1051D0000895DF93CF93CDB7DEB727970FB6F89436
:1051E000DEBF0FBECDBF9C838B836D834E832F8329
:1051F0001A828D81882F90E0880F991F880F991F40
:10520000880F991F89838981805C0E94F9261A8200
:105210000EC08A81282F30E08B819C81FC01E20F37
:10522000F31F80810E9497278A818F5F8A838A81FA
:10523000873078F38E816F810E94B5288D810E941E
:10524000972727960FB6F894DEBF0FBECDBFCF913C
:10525000DF910895DF93CF9300D0CDB7DEB7898378
:105260006A8389816A810E94B52880E80E94972715
:1052700089816A810E94B5280F900F90CF91DF91AC
:105280000895DF93CF93CDB7DEB781E00E94F92672
:10529000CF91DF910895EF92FF920F931F93DF93C9
:1052A000CF93CDB7DEB728970FB6F894DEBF0FBE09
:1052B000CDBF6D837E838F83988781E090E0A0E0EF
:1052C000B0E089839A83AB83BC8336C089819A819D
:1052D000AB81BC812AE030E040E050E0BC01CD0170
:1052E0000E94593B7B018C018D819E81AF81B885E5
:1052F0002AE030E040E050E0BC01CD010E94783B64
:10530000DC01CB018E0D9F1DA01FB11F89839A83E5
:10531000AB83BC838D819E81AF81B8852AE030E06C
:1053200040E050E0BC01CD010E94783BDA01C901A8
:105330008D839E83AF83B8878D819E81AF81B88531
:105340000097A105B10511F689819A81AB81BC81D5
:105350002AE030E040E050E0BC01CD010E94783B03
:10536000DC01CB01805D0E94972789819A81AB8106
:10537000BC812AE030E040E050E0BC01CD010E9459
:10538000783BDA01C90189839A83AB83BC83898125
:105390009A81AB81BC8181309105A105B105A1F64F
:1053A00028960FB6F894DEBF0FBECDBFCF91DF9128
:1053B0001F910F91FF90EF900895DF93CF93CDB79A
:1053C000DEB781E060E042E00E945B0B81E061E0DB
:1053D00042E00E945B0B81E062E042E00E945B0BD6
:1053E00081E063E042E00E945B0B81E064E041E029
:1053F0000E945B0B81E065E041E00E945B0B81E075
:1054000066E041E00E945B0B81E067E041E00E94C2
:105410005B0B81E064E041E00E94D80D81E065E033
:1054200041E00E94D80D81E066E041E00E94D80D85
:1054300081E067E041E00E94D80DCF91DF910895AF
:10544000DF93CF93CDB7DEB7E0970FB6F894DEBF0A
:105450000FBECDBF80E3898BCE0143969DA78CA75D
:10546000E1E3F1E0FFA7EEA7F0E1F8ABEEA5FFA5C1
:1054700000808EA59FA501969FA78EA7ECA5FDA5F0
:1054800000828CA59DA501969DA78CA798A99150F7
:1054900098ABE8A9EE2351F7188A1F8684E08BA306
:1054A00085E08CA386E08DA387E08EA31FA281E018
:1054B00088A782E089A783E08AA7188AD5C088894F
:1054C000282F30E0CE018396FC01E20FF31F90817C
:1054D00081E0692F40E00E94D80D1F86B0C08F8503
:1054E000282F30E0CE018796FC01E20FF31F908158
:1054F00081E0692F0E94F0108A8B8A89882309F045
:105500009BC08F85282F30E08889482F50E0220FDC
:10551000331F220F331FCE010196820F931F840F7A
:10552000951FFC0172968081898B0EC08F85282F74
:1055300030E0CE018796FC01E20FF31F908181E0FD
:10554000692F0E94F0108A8B8A89882379F380E082
:1055500090E0A0EAB0E48B879C87AD87BE876B851F
:105560007C858D859E8520E030E04AEF54E40E94E2
:105570001F02DC01CB018F839887A987BA876F81CF
:10558000788589859A8520E030E040E85FE30E94D5
:10559000790388232CF481E090E09E838D833FC0C3
:1055A0006F81788589859A8520E03FEF4FE757E442
:1055B0000E94190318164CF56B857C858D859E8598
:1055C00020E030E040E251E40E941F02DC01CB0108
:1055D000BC01CD010E944900DC01CB019E838D837B
:1055E0000FC088EC90E09C838B838B819C8101971A
:1055F000F1F79C838B838D819E8101979E838D83A0
:105600008D819E81009769F714C06F8178858985A7
:105610009A850E944900DC01CB019E838D838D8198
:105620009E819A83898389819A810197F1F79A8370
:105630008983F989FBA71EC08F858F5F8F878F8530
:10564000843008F44CCF8889282F30E0CE0183962F
:10565000FC01E20FF31F908181E0692F41E00E947D
:10566000D80D88898F5F888B8889843008F427CF8C
:1056700089898BA78BA5E0960FB6F894DEBF0FBE85
:10568000CDBFCF91DF910895DF93CF93CDB7DEB734
:1056900080E060E041E00E945B0B80E061E041E07F
:1056A0000E945B0BCF91DF910895DF93CF9300D0E1
:1056B000CDB7DEB789836A8389816A8141E00E9420
:1056C0005B0B0F900F90CF91DF910895DF93CF93F5
:1056D00000D0CDB7DEB789836A8389816A8141E0D2
:1056E0000E94D80D0F900F90CF91DF910895DF9316
:1056F000CF9300D0CDB7DEB789836A8389816A8171
:1057000040E00E94D80D0F900F90CF91DF91089547
:10571000DF93CF93CDB7DEB780E060E040E00E943A
:10572000D80D80E061E041E00E94D80DCF91DF917B
:105730000895DF93CF93CDB7DEB780E061E040E01E
:105740000E94D80D80E060E041E00E94D80DCF912A
:10575000DF910895DF93CF93CDB7DEB780E060E0AF
:1057600040E00E94D80D80E061E040E00E94D80D4A
:10577000CF91DF910895DF93CF9300D0CDB7DEB7FF
:1057800089836A8389816A8141E00E945B0B0F9063
:105790000F90CF91DF910895DF93CF9300D0CDB7D5
:1057A000DEB789836A8389816A8141E00E94D80DCE
:1057B0000F900F90CF91DF910895DF93CF9300D09A
:1057C000CDB7DEB789836A8389816A8140E00E9410
:1057D000D80D0F900F90CF91DF910895DF93CF9365
:1057E00000D0CDB7DEB789836A8389816A810E9440
:1057F0001C100F900F90CF91DF910895DF93CF93FE
:10580000CDB7DEB76C970FB6F894DEBF0FBECDBF35
:1058100081E065E041E00E94362181E00E94F926A6
:1058200080E690E00E94352880E060E00E94CC2B6A
:1058300080E090E0A8ECB2E4898F9A8FAB8FBC8FA8
:10584000698D7A8D8B8D9C8D20E030E04AEF54E499
:105850000E941F02DC01CB018D8B9E8BAF8BB88F1A
:105860006D897E898F89988D20E030E040E85FE384
:105870000E94790388232CF481E090E09C8B8B8B31
:105880003FC06D897E898F89988D20E03FEF4FE77B
:1058900057E40E94190318164CF5698D7A8D8B8D8B
:1058A0009C8D20E030E040E251E40E941F02DC01C8
:1058B000CB01BC01CD010E944900DC01CB019C8BD6
:1058C0008B8B0FC088EC90E09A8B898B89899A89A1
:1058D0000197F1F79A8B898B8B899C8901979C8B17
:1058E0008B8B8B899C89009769F714C06D897E89A1
:1058F0008F89988D0E944900DC01CB019C8B8B8B9A
:105900008B899C89988B8F878F8598890197F1F770
:10591000988B8F8780E060E00E94DD2B80E090E034
:10592000AAE7B4E48B879C87AD87BE876B857C85AF
:105930008D859E8520E030E04AEF54E40E941F02EE
:10594000DC01CB018F839887A987BA876F8178851F
:1059500089859A8520E030E040E85FE30E94790382
:1059600088232CF481E090E09E838D833FC06F817B
:10597000788589859A8520E03FEF4FE757E40E94BC
:10598000190318164CF56B857C858D859E8520E066
:1059900030E040E251E40E941F02DC01CB01BC0177
:1059A000CD010E944900DC01CB019E838D830FC095
:1059B00088EC90E09C838B838B819C810197F1F72D
:1059C0009C838B838D819E8101979E838D838D81A6
:1059D0009E81009769F714C06F81788589859A85C3
:1059E0000E944900DC01CB019E838D838D819E81C5
:1059F0009A83898389819A810197F1F79A838983B0
:105A00006C960FB6F894DEBF0FBECDBFCF91DF917D
:105A10000895DF93CF93CDB7DEB76C970FB6F894A8
:105A2000DEBF0FBECDBF81E066E041E00E943621BF
:105A300081E00E94F92689E690E00E94352880E006
:105A400060E00E94CC2B80E090E0A8ECB2E4898F6B
:105A50009A8FAB8FBC8F698D7A8D8B8D9C8D20E05A
:105A600030E04AEF54E40E941F02DC01CB018D8B31
:105A70009E8BAF8BB88F6D897E898F89988D20E042
:105A800030E040E85FE30E94790388232CF481E052
:105A900090E09C8B8B8B3FC06D897E898F89988D20
:105AA00020E03FEF4FE757E40E94190318164CF52A
:105AB000698D7A8D8B8D9C8D20E030E040E251E441
:105AC0000E941F02DC01CB01BC01CD010E944900F4
:105AD000DC01CB019C8B8B8B0FC088EC90E09A8B08
