:0C0000000C94A7010C9400000C9400006C
:10000C000C9400000C9400000C9400000C94000064
:10001C000C9400000C9400000C9400000C94000054
:10002C000C9400000C9400000C9400000C94000044
:10003C000C9400000C94DF010C9400000C94000054
:10004C000C9400000C9400000C9400000C94000024
:10005C000C9400000C9400000C940000D0070000DD
:10006C000000000000000000000000000000000084
:10007C000000000000000000000000000000000074
:10008C000000000000000000000000000000000064
:10009C000000000000000000000000000000000054
:1000AC000000000000000000000000000000000044
:1000BC000000000000000000000000000000000034
:1000CC000000000000000000000000000000000024
:1000DC000000000000000000000000000000000014
:1000EC000000000000000000000000000000000004
:1000FC0000000000000000000000000000000000F4
:10010C0000000000000000000000000000000000E3
:10011C0000000000000000000000000000000000D3
:10012C000000000000002B495044002563004642AB
:10013C00203A75204F4B004642203A64204F4B002A
:10014C004642203A73204F4B0041542B43495053A5
:10015C0054415455530D0A003A350041542B525317
:10016C00540D0A003A320041542B43494653520D68
:10017C000A0041542B43574A41503F0D0A00415449
:10018C002B4349504D55583D310D0A0041542B43DA
:10019C0049505345525645523D312C313030310D7A
:1001AC000A0043495053454E44003E006E6F0041D7
:1001BC00542B43495053454E443D25732C25640D17
:1001CC000A0041542B434950434C4F53453D257332
:1001DC000D0A00415445300D0A0041542B43574D34
:1001EC004F44453D310D0A0041542B435741555462
:1001FC004F434F4E4E3D310D0A0041542B43574A4D
:10020C0041505F4445463D22536D6172744C6966A2
:10021C0065222C224C6966654032303230220D0A40
:10022C000041542B4349505354415F4445463D22B1
:10023C003139322E3136382E312E313530222C22B6
:10024C003139322E3136382E312E31222C223235A4
:10025C00352E3235352E3235352E30220D0A0041F1
:10026C00542B43495053544F3D31300D0A0002007A
:10027C00040068000500000332010500050332018B
:10028C0005000A03320109000F033A0105001803A7
:10029C00320109001D034301050026033201090048
:1002AC002B034C010F00340355010300430364017D
:1002BC000900460367010F004F03550103005E035D
:1002CC0064010300610370010B00640373010C00F3
:1002DC006F037E010E007B038A01160089039801CF
:1002EC0008009F03AE010200A703B6010300A90397
:1002FC0040010300AC03B8010300AF034001070049
:10030C00B203DF010E00B903E6011200C703F401CA
:10031C002700D90306023E0000042D020E003E0405
:10032C008A0116004C0498010F0062046B020F0046
:10033C00710455010B00800473010C008B047E01C9
:10034C000000F894EE27EFBBF1E0F5BFE5BFF8E154
:10035C00A895A4B7A77FA4BFF0936000E0936000BA
:10036C008DE0A2E0BB27ED938A95E9F780E098E059
:10037C00A0E0B1E0ED930197E9F7EAE7F2E08591AF
:10038C009591009761F0A591B59105901590BF01DD
:10039C00F00105900D920197E1F7FB01F0CFE0E041
:1003AC00EEBBEFEFEDBFE8E0EEBFC0E0D3E00C94A6
:1003BC0041026A937A93AA93BA93EA93FA93EFB7AA
:1003CC00EA93E3E8E6BDA7E9B4E0A0D6EF5FFF4F00
:1003DC006F4F7F4FA0D6E991EFBFF991E991B99199
:1003EC00A991799169911895E091C000E07819F084
:1003FC00E1E0F0E00895E0E0F0E008950895E0E831
:10040C00E0936100E0E0E0936100E5B9E4E0E4B979
:10041C00E9E3E8B9E0E0E7B9E8E0EBB9E4EFEAB921
:10042C00E0E0E4BDE3E0E5BDE3E8E6BDE0E0E7BD28
:10043C00E8BDE1E0E0936E00E0E0E0936F00E09354
:10044C007000E093C000E8E1E093C100E6E0E093C7
:10045C00C200E0E0E093C500E5E0E093C400E0E01A
:10046C00E0937A00A895EFE1E0936000EFE0E09371
:10047C00600078940895EF97AA97E0E0E883E98309
:10048C00EA83EB83BCDF5AD2E0919704F091980495
:10049C006091990470919A0459D6A895A5DF30976C
:1004AC0009F4A3C0FE01F696FA93EA93A2E3B0E036
:1004BC00E3D2FE01F696FA93EA93A0E0B3E0ADD551
:1004CC00309709F491C0FE01E859FF4FFA93EA9373
:1004DC00E7E3F1E0FA93EA93FE01FA96FA93EA93D2
:1004EC00A5E0B3E09AD5E385FF276627772733D6B7
:1004FC0084E038D52896DE01A859BF4FAC91A537BA
:10050C0011F5FE01E859FF4FFA93EA93E7E3F1E0A6
:10051C00FA93EA93FE01FA96FA93EA93AAE0B3E00F
:10052C007CD5E581FF276627772715D684E01AD579
:10053C002896FE01E859FF4FFA93EA93AFE0B3E037
:10054C00AFD15E9A50C0DE01A859BF4FAC91A43612
:10055C0019F5FE01E859FF4FFA93EA93E7E3F1E04E
:10056C00FA93EA93FE01FA96FA93EA93A8E1B3E0C0
:10057C0054D5E581FF2766277727EDD584E0F2D4A3
:10058C002896FE01E859FF4FFA93EA93ADE1B3E0E8
:10059C0087D15E985F9A28C0DE01A859BF4FAC91F5
:1005AC00A33711F5FE01E859FF4FFA93EA93E7E3FD
:1005BC00F1E0FA93EA93FE01FA96FA93EA93A6E233
:1005CC00B3E02BD5E581FF2766277727C4D584E0D8
:1005DC00C9D42896FE01E859FF4FFA93EA93ABE28F
:1005EC00B3E05ED15E985F98A6C0A0919B04B091D9
:1005FC009C0480919D0490919E049ED543D5DF016F
:10060C00CB01F20166277727B4D508F494C094D5B2
:10061C00E0939B04F0939C0460939D0470939E0460
:10062C00FE013496FA93EA93E4E3F3E0FA93EA9347
:10063C00E4E6F0E0FA93EA93A1E0B0E07ED0DF01CB
:10064C00C6D4FE013496FA93EA93A3E4B3E0E5D45E
:10065C00309729F4DE011496C7D43097B9F5E6E447
:10066C00F3E0FA93EA93E0E1F7E2FA93EA93A1E07C
:10067C00B0E063D063D1FE013496FA93EA93EFE4D1
:10068C00F3E0FA93EA93E4E6F0E0FA93EA93A1E05C
:10069C00B0E053D0DF019BD4FE013496FA93EA9379
:1006AC00AEE5B3E0BAD4309729F4DE0114969CD4AD
:1006BC00309759F45A98A8EEB3E060D5A8955A9A99
:1006CC00A8EEB3E05BD5A89539D135C0FE013496C0
:1006DC00FA93EA93A1E6B3E0A0D4309761F1E4E693
:1006EC00F3E0FA93EA93E4E6F0E0FA93EA93A1E0FC
:1006FC00B0E023D0EFE6F3E0FA93EA93E4E6F0E01F
:10070C00FA93EA93A1E0B0E018D0EBE7F3E0FA93A8
:10071C00EA93E6E9F0E0FA93EA93A1E0B0E00DD0B9
:10072C00E9E8F3E0FA93EA93E6E9F0E0FA93EA9366
:10073C00A1E0B0E002D0A8CEFFCFFF92BA93AA936B
:10074C00EF97A99784E6A4E0B0E0EAE6F0E08AD45B
:10075C00FF24E0919704F0919804609199047091B2
:10076C009A04F4D4DE01A459BF4F0E949C0871D1A5
:10077C00F0FC12C0FE01E659FF4F0E949608E1D42E
:10078C008ED47BD4E0919704F091980460919904F5
:10079C0070919A04E9D408F038C0A89525DE3097FA
:1007AC0039F0FE013496FA93EA93A2E3B0E064D1F7
:1007BC00FE01E459FF4F0E949608FA93EA93AFE9C1
:1007CC00B3E02BD4309761F0FE013496FA93EA93A0
:1007DC00A7EAB3E022D4309711F06894F0F814C073
:1007EC00FE013496FA93EA93A9EAB3E016D4309753
:1007FC0049F4FE013496FA93EA93ACEAB3E00DD4D3
:10080C00309711F06894F0F8B3CFFE013496EF9660
:10081C00AF96FF900895FF92BA93AA93E69782E35E
:10082C00A4E0B0E0EEECF0E01DD4FF24E0919704DE
:10083C00F09198046091990470919A0487D4AAADB0
:10084C00BBAD07D1E8ADF9AD7CD429D416D4E09179
:10085C009704F09198046091990470919A0484D44F
:10086C0010F4F0FE01C017C0A895BEDD309739F02A
:10087C00FE013496FA93EA93AAE0B0E0FDD0FE01B3
:10088C003496FA93EA93AFEAB3E0C7D3309711F0FA
:10089C006894F0F8D7CFFE013496EC96FF9008954B
:1008AC00BA93AA93E29782E3A0E0B0E0E0E0F1E033
:1008BC00D9D3FE01FA93EA93EBEBF1E0FA93EA93C6
:1008CC00E8ADF9AD6627772746D4AAADBBAD8CD37E
:1008DC006627772740D488E045D32C96FE01FA93FF
:1008EC00EA93E8ECF0E0FA93EA93A1E0B0E025DFBC
:1008FC00EAA9FBA9FA93EA93E8ECF0E0FA93EA93FD
:10090C00A1E0B0E088DFFE01FA93EA93EEECF1E0AF
:10091C00FA93EA93E8ADF9AD662777271CD484E007
:10092C0021D32896FE01FA93EA93E8ECF0E0FA93CF
:10093C00EA93A1E0B0E001DFE6960895E2EBF3E084
:10094C00FA93EA93E4E6F0E0FA93EA93A1E0B0E0DC
:10095C00F4DEE9EBF3E0FA93EA93E8EEF3E0FA93D2
:10096C00EA93A1E0B0E0E9DEE7ECF3E0FA93EA9376
:10097C00E4E6F0E0FA93EA93A1E0B0E0DEDEE9ED24
:10098C00F3E0FA93EA93E0E1F7E2FA93EA93A1E059
:10099C00B0E0D3DEE0E0F4E0FA93EA93E4EFF1E0C8
:1009AC00FA93EA93A1E0B0E0C8DEEEE3F4E0FA9348
:1009BC00EA93E6E9F0E0FA93EA93A1E0B0E0BDDE59
:1009CC00ECE4F4E0FA93EA93E6E9F0E0FA93EA93C4
:1009DC00A1E0B0E0B2DEE2E6F4E0FA93EA93E6E9F5
:1009EC00F0E0FA93EA93A1E0B0E0A7DEE1E7F4E0EF
:1009FC00FA93EA93E4E6F0E0FA93EA93A1E0B0E02C
:100A0C009CDEE0E8F4E0FA93EA93E4E6F0E0FA9393
:100A1C00EA93A1E0B0E091DEEBE8F4E0FA93EA931C
:100A2C00E4E6F0E0FA93EA93A1E0B0E086DE089504
:100A3C00E091C000E078E1F3E091C6000895AA933C
:100A4C00E091C000E072E1F3E881E093C6002196EA
:100A5C000895BA93AA931A93A981BA81ED91A983A7
:100A6C00BA831E2FE03019F0A12FE9DFF5CFAAE0F1
:100A7C00E6DF188123960895BA93AA93E5D20E81E6
:100A8C001F8128853985002E012AD9F0D1DF5E2FF0
:100A9C00583051F4AE81BF810A171B0720F4215046
:100AAC0030400F5F1F4FF2CF5A3059F03F932F93C6
:100ABC002F5F3F4FE52FAF91BF91EC93015010404A
:100ACC00E2CFD901E0E0EC93E885F985C4D22A960F
:100ADC000895BA93AA931A930A93AA81BB8112968A
:100AEC000BD3309749F1AA81BB81149605D38F01A2
:100AFC00309761F00230E0E01E0798F0F801319772
:100B0C008F01AA81BB811496ED93FC93AA81BB81C2
:100B1C001296ED91FD913196FE93EE933197AC8147
:100B2C00A083AA81BB81E8D2FF232AF0ED91FD912D
:100B3C003196FE93EE9306C0AA81BB81EFEFFFEFD7
:100B4C00ED93FC931981088125960895BA93AA9385
:100B5C002C977AD210E0AA89BB89E0E0F0E0ED9303
:100B6C00FC93E88DF98D3196E88FF98F3197E491EC
:100B7C002E2FE03009F4EFC1E12FE03059F425328B
:100B8C0011F411E006C02A93AB89BC89ED89FE896A
:100B9C000995E0C1E130E1F4253239F42A93AB89AF
:100BAC00BC89ED89FE890995D4C112E0E0E0E98B9E
:100BBC0000E02D3211F401E0CDC12B3219F4EBE23F
:100BCC00E98BC8C1203219F4E0E2E98BC3C102C041
:100BDC00E23039F450E013E0203311F40068BAC16C
:100BEC0002C0E33091F4203310F02A3308F007C030
:100BFC00AAE05A9F502DE22FE0535E0FABC140E0AC
:100C0C002E3211F414E0A6C10EC0E43091F420335E
:100C1C0010F02A3308F007C0AAE04A9F402DE22FBB
:100C2C00E0534E0F97C12C3619F4026015E092C1B7
:100C3C0003C0E53009F08EC1E22FE33669F4EE898A
:100C4C00FF893497EE8BFF8BA481AA93AB89BC8967
:100C5C00ED89FE8909957DC1E33789F4EE89FF8919
:100C6C003497EE8BFF8BAE89BF891496ED91FD9175
:100C7C00EE83FF83AE81BF81B7D11E2F13C0E03747
:100C8C00E9F4EE89FF893497EE8BFF8BAE89BF892F
:100C9C001496ED91FD91EE83FF83AE81BF81B0D1AF
:100CAC001E2F08600F77403011F0411708F001C07B
:100CBC00142F40E0E0E0E88B30E083C0E43611F024
:100CCC00E93611F4046002C0E537C1F4EAE0E88BC0
:100CDC0001FF0AC0E0E0FAEC6AE97BE3E887F987F8
:100CEC006A877B871AE028C0E0E1F7E260E070E0F9
:100CFC00E887F9876A877B8715E01EC0E83511F411
:100D0C00086003C0E83709F024C1E0E1E88B01FF7B
:100D1C000AC0E0E0F0E060E070E1E887F9876A87FC
:100D2C007B8718E009C0E0E0F0E160E070E0E88764
:100D3C00F9876A877B8714E0403011F00F7701C088
:100D4C0041E001FF0AC0EE89FF893497EE8BFF8BDF
:100D5C00AE89BF891496D4D118C002FF0BC0EE899E
:100D6C00FF893497EE8BFF8BAE89BF891496C4D163
:100D7C0096D10BC0EE89FF893497EE8BFF8BAE8931
:100D8C00BF891496B9D166277727EC87FD876E87C4
:100D9C007F8702FF15C0AF85AA235AF4EC85FD8529
:100DAC006E857F8574D1EC87FD876E877F87EDE23A
:100DBC00E98BE989E03019F01F5F4F5F01C00B7FB1
:100DCC00342F00FD18C0151710F4351708F013C098
:100DDC0007FF08C002FF04C00B7F2989115001C016
:100DEC0020E301C020E22A93AB89BC89ED89FE89FE
:100DFC0009955150E8CF1417E0F4006102FF0DC0C3
:100E0C000B7FE989EA93AB89BC89ED89FE89099549
:100E1C00503009F0515011504150E0E3EA93AB8946
:100E2C00BC89ED89FE890995503009F0515041502B
:100E3C00E2CF312FE889E030D9F43030C1F003FF34
:100E4C0006C0EE81FF812591EE83FF8305C0AE8144
:100E5C00BF812D91AE83BF832A93AB89BC89ED8969
:100E6C00FE890995503009F051503150E6CF64C0DD
:100E7C00E885F9856A857B85AC85BD858E859F85E2
:100E8C0013D12E2F2A3030F003FF02C0295C01C091
:100E9C00295A01C0205D04FD28C0213360F4A885C7
:100EAC00B9858A859B85A130E0E0BE07E0E08E071E
:100EBC00E0E09E0709F40BC0431740F4531710F001
:100ECC0000FF01C01BC020E207FF0FC020E3006140
:100EDC0002FF0BC00B7FE989EA93AB89BC89ED89D2
:100EEC00FE890995503009F051502A93AB89BC8981
:100EFC00ED89FE890995503009F051503150E88543
:100F0C00F9856A857B85AC85BD858E859F85F0D0FE
:100F1C00EC87FD876E877F87E889A885B9858A85E8
:100F2C009B85FF2766277727BFD0E887F9876A87D5
:100F3C007B8716D109F09CCF00FF0BC0503049F0D5
:100F4C005150E0E2EA93AB89BC89ED89FE890995A1
:100F5C00F5CF10E006CEAA89BB89ED91FD917BD02F
:100F6C006A960895FF92F82E269770D0DE011C9693
:100F7C0080D0C2D0309719F4EFEFFFEF24C0DE0120
:100F8C00169677D08D01DE011C9673D0ED91FD91F4
:100F9C00EE83FF83E0E0E887E987DE011A9669D0EB
:100FAC00ED91FD91FA93EA931A930A93EFE6F5E02B
:100FBC00FA93EA93DE011A96C9DD9F01AE81BF81D7
:100FCC00E0E0EC93F90149D02A96FF900895BA938A
:100FDC00AA93E991F991A991B991CD0161916D9380
:100FEC006623E1F7FC010895BA93AA93A991B991EC
:100FFC00EE27FF276D91662311F03196FBCF0895F4
:10100C00BA93AA93AA27BB27E991F99105900020DE
:10101C0011F01196FBCFFD010895BA93AA93AA8102
:10102C00BB81CD01E881F9817191772311F4FC0129
:10103C0009C06D916717C1F30196DC01662391F726
:10104C00EE27FF27249608955A934A933A932A93AE
:10105C001A930A9308955D814C813B812A811981F1
:10106C0008810895AC0FBD1F05900D928A95E1F78C
:10107C0008950024AF0DB01D0895AE0FBF1F861F3D
:10108C00971F0895EA1BFB0B680B790B0895F095DD
:10109C0060957095E195FF4F6F4F7F4F08956F2FBF
:1010AC00660F660B762F08953F934F935F93002442
:1010BC001124A00130E2AA0FBB1F881F991F001C2E
:1010CC00111C441F551F0E1A1F0A460B570B28F4F0
:1010DC000E0E1F1E461F571F01C0A1603A9559F7EF
:1010EC00FD01BC01D001CA015F914F913F91089560
:1010FC00DBDFFD01BC010895ED91FC911197089582
:10110C00ED91FD916D917C9113970895ED91FD9169
:10111C006D917D9108957E936E93FE93EE93089559
:10112C000F920190F081E02D0F9008950F920D9089
:10113C00BC91A02D0F900895E881F9816A817B8183
:10114C000895A881B9818A819B810895E883F983E8
:10115C006A837B8308957A936A93FA93EA9308954A
:10116C003097604070400895EA17FB0768077907CD
:10117C000895AE17BF07860797070895109639F0A4
:10118C00A8958DEC9AE00197F1F71197C9F708959E
:00000001FF
