:080000000C94A7010C94000010
:100008000C9400000C9400000C9400000C94000068
:100018000C9400000C9400000C9400000C94000058
:100028000C9400000C9400000C9400000C94000048
:100038000C9400000C9400000C94DF010C94000058
:100048000C9400000C9400000C9400000C94000028
:100058000C9400000C9400000C9400000C94000018
:100068000000000000000000000000000000000088
:100078000000000000000000000000000000000078
:100088000000000000000000000000000000000068
:100098000000000000000000000000000000000058
:1000A8000000000000000000000000000000000048
:1000B8000000000000000000000000000000000038
:1000C8000000000000000000000000000000000028
:1000D8000000000000000000000000000000000018
:1000E8000000000000000000000000000000000008
:1000F80000000000000000000000000000000000F8
:1001080000000000000000000000000000000000E7
:1001180000000000000000000000000000000000D7
:100128000000000000000000D0072B4950440025C3
:1001380063004642203A75204F4B004642203A64FD
:10014800204F4B004642203A73204F4B0041542B1E
:100158004349505354415455530D0A003A35004110
:10016800542B5253540D0A003A320041542B434940
:100178004653520D0A0041542B43574A41503F0DF4
:100188000A0041542B4349504D55583D310D0A0042
:1001980041542B4349505345525645523D312C3119
:1001A8003030310D0A0043495053454E44003E005B
:1001B8006E6F0041542B43495053454E443D2573BF
:1001C8002C25640D0A0041542B434950434C4F538E
:1001D800453D25730D0A00415445300D0A00415430
:1001E8002B43574D4F44453D310D0A0041542B4395
:1001F800574155544F434F4E4E3D310D0A0041541F
:100208002B43574A41505F4445463D22736D617206
:10021800746C696665222C226D726231333131311A
:1002280033220D0A0041542B4349505354415F4433
:1002380045463D223139322E3136382E312E35356C
:10024800222C223139322E3136382E312E31222CC1
:10025800223235352E3235352E3235352E30220DB7
:100268000A0041542B43495053544F3D31300D0A35
:1002780000000500000332010500050332010500F6
:100288000A03320109000F033A010500180332017D
:1002980009001D03430105002603320109002B0351
:1002A8004C010F00340355010300430364010900A6
:1002B800460367010F004F03550103005E03640105
:1002C8000300610370010B00640373010C006F03EA
:1002D8007E010E007B038A0116008903980108003D
:1002E8009F03AE010200A703B6010300A903400162
:1002F8000300AC03B8010300AF0340010700B203D9
:10030800DF010E00B903E6011200C703F40127005C
:10031800D90306023D0000042D020E003D048A01A7
:1003280016004B0498010F0061046A020F00700464
:1003380055010B007F0473010C008A047E01020042
:10034800040030010000F894EE27EFBBF1E0F5BFA0
:10035800E5BFF8E1A895A4B7A77FA4BFF093600014
:10036800E09360008DE0A2E0BB27ED938A95E9F762
:1003780080E098E0A0E0B1E0ED930197E9F7EAE7C3
:10038800F2E085919591009761F0A591B59105905E
:100398001590BF01F00105900D920197E1F7FB015F
:1003A800F0CFE0E0EEBBEFEFEDBFE8E0EEBFC0E07E
:1003B800D3E00C9443026A937A93AA93BA93EA938C
:1003C800FA93EFB7EA93E3E8E6BDA6E9B4E00E9442
:1003D800DB08EF5FFF4F6F4F7F4F0E94E008E99106
:1003E800EFBFF991E991B991A9917991699118951E
:1003F800E091C000E07819F0E1E0F0E00895E0E075
:10040800F0E008950895E0E8E0936100E0E0E0930B
:100418006100E5B9E4E0E4B9E9E3E8B9E0E0E7B9A7
:10042800E8E0EBB9E4EFEAB9E0E0E4BDE3E0E5BD1C
:10043800E3E8E6BDE0E0E7BDE8BDE1E0E0936E009B
:10044800E0E0E0936F00E0937000E093C000E8E123
:10045800E093C100E6E0E093C200E0E0E093C5006D
:10046800E5E0E093C400E0E0E0937A00A895EFE1CE
:10047800E0936000EFE0E093600078940895EF97D0
:10048800AA97E0E0E883E983EA83EB83BCDF95D2AF
:10049800E0919604F0919704609198047091990402
:1004A8000E94EF08A895A4DF309711F40C940E036E
:1004B800FE01F696FA93EA93A2E3B0E00E947F0564
:1004C800FE01F696FA93EA93A0E0B3E00E946C0866
:1004D800309711F40C940D03FE01E859FF4FFA937D
:1004E800EA93E7E3F1E0FA93EA93FE01FA96FA93C6
:1004F800EA93A5E0B3E00E946C08E385FF2766272E
:1005080077270E94F40884E00E940A082896DE01F2
:10051800A859BF4FAC91A53729F5FE01E859FF4FFF
:10052800FA93EA93E7E3F1E0FA93EA93FE01FA9685
:10053800FA93EA93AAE0B3E00E946C08E581FF27EA
:10054800662777270E94F40884E00E940A08289604
:10055800FE01E859FF4FFA93EA93AFE0B3E0D8D130
:100568005C9A56C0DE01A859BF4FAC91A43631F54C
:10057800FE01E859FF4FFA93EA93E7E3F1E0FA93B3
:10058800EA93FE01FA96FA93EA93A8E1B3E00E948F
:100598006C08E581FF27662777270E94F40884E026
:1005A8000E940A082896FE01E859FF4FFA93EA9339
:1005B800ADE1B3E0ADD15C985D9A2BC0DE01A859DE
:1005C800BF4FAC91A33729F5FE01E859FF4FFA93C5
:1005D800EA93E7E3F1E0FA93EA93FE01FA96FA93D5
:1005E800EA93A6E2B3E00E946C08E581FF2766273C
:1005F80077270E94F40884E00E940A082896FE01E2
:10060800E859FF4FFA93EA93ABE2B3E081D15C98E3
:100618005D98B5C0A0919A04B0919B0480919C0408
:1006280090919D040E94E5080E949608DF01CB0185
:10063800F201662777270E94020910F40C94C3037D
:100648000E94E508E0939A04F0939B0460939C044D
:1006580070939D04FE013496FA93EA93E4E3F3E081
:10066800FA93EA93E4E6F0E0FA93EA93A1E0B0E0C3
:1006780088D0DF010E944608FE013496FA93EA9377
:10068800A3E4B3E00E946C08309739F4DE011496B5
:100698000E945308309709F03CC0E6E4F3E0FA936F
:1006A800EA93E0E1F7E2FA93EA93A1E0B0E069D0D7
:1006B80084D1FE013496FA93EA93EFE4F3E0FA93D7
:1006C800EA93E4E6F0E0FA93EA93A1E0B0E059D0C7
:1006D800DF010E944608FE013496FA93EA93AEE5DC
:1006E800B3E00E946C08309731F4DE0114960E9442
:1006F8005308309769F45A98A8EEB3E00E9483082B
:10070800A8955A9AA8EEB3E00E948308A89555D1F7
:1007180036C0FE013496FA93EA93A1E6B3E00E944C
:100728006C08309761F1E4E6F3E0FA93EA93E4E6C3
:10073800F0E0FA93EA93A1E0B0E023D0EFE6F3E02B
:10074800FA93EA93E4E6F0E0FA93EA93A1E0B0E0E2
:1007580018D0EBE7F3E0FA93EA93E6E9F0E0FA93CE
:10076800EA93A1E0B0E00DD0E9E8F3E0FA93EA9368
:10077800E6E9F0E0FA93EA93A1E0B0E002D088CE8F
:10078800FFCFFF92BA93AA93EF97A99784E6A4E0C4
:10079800B0E0E8E6F0E00E941509FF24E091960435
:1007A800F091970460919804709199040E94EF0861
:1007B800DE01A459BF4F0D90BC91A02D89D1F0FC4A
:1007C80017C0FE01E659FF4F0190F081E02D0E940D
:1007D800EA080E94A3080E949108E0919604F0910B
:1007E800970460919804709199040E94FD0808F09C
:1007F8003DC0A895FDDD309739F0FE013496FA9397
:10080800EA93A2E3B0E077D1FE01E459FF4F0190EB
:10081800F081E02DFA93EA93AFE9B3E00E946C0807
:10082800309769F0FE013496FA93EA93A7EAB3E0A9
:100838000E946C08309711F06894F0F816C0FE0119
:100848003496FA93EA93A9EAB3E00E946C083097C9
:1008580051F4FE013496FA93EA93ACEAB3E00E94AD
:100868006C08309711F06894F0F8A9CFFE0134961F
:10087800EF96AF96FF900895FF92BA93AA93E697E2
:1008880082E3A4E0B0E0ECECF0E00E941509FF245C
:10089800E0919604F09197046091980470919904FE
:1008A8000E94EF08AAADBBAD13D1E8ADF9AD0E9427
:1008B800EA080E94A3080E949108E0919604F0912A
:1008C800970460919804709199040E94FD0810F4AF
:1008D800F0FE01C018C0A8958BDD309739F0FE01F5
:1008E8003496FA93EA93AAE0B0E005D1FE01349673
:1008F800FA93EA93AFEAB3E00E946C08309711F0DC
:100908006894F0F8D2CFFE013496EC96FF900895E3
:10091800BA93AA93E29782E3A0E0B0E0EEEFF0E0AA
:100928000E941509FE01FA93EA93EBEBF1E0FA93C2
:10093800EA93E8ADF9AD662777270E94F408AAADD7
:10094800BBAD0E945308662777270E94F40888E009
:100958000E940A082C96FE01FA93EA93E8ECF0E06C
:10096800FA93EA93A1E0B0E00CDFEAA9FBA9FA93B5
:10097800EA93E8ECF0E0FA93EA93A1E0B0E07CDFD8
:10098800FE01FA93EA93EEECF1E0FA93EA93E8AD0C
:10099800F9AD662777270E94F40884E00E940A08C8
:1009A8002896FE01FA93EA93E8ECF0E0FA93EA93CA
:1009B800A1E0B0E0E6DEE6960895E2EBF3E0FA9314
:1009C800EA93E4E6F0E0FA93EA93A1E0B0E0D9DE36
:1009D800E9EBF3E0FA93EA93E8EEF3E0FA93EA93AB
:1009E800A1E0B0E0CEDEE7ECF3E0FA93EA93E4E6C8
:1009F800F0E0FA93EA93A1E0B0E0C3DEE9EDF3E0BA
:100A0800FA93EA93E0E1F7E2FA93EA93A1E0B0E01F
:100A1800B8DEE0E0F4E0FA93EA93E4EFF1E0FA9369
:100A2800EA93A1E0B0E0ADDEEDE3F4E0FA93EA93F7
:100A3800E6E9F0E0FA93EA93A1E0B0E0A2DEEBE4A5
:100A4800F4E0FA93EA93E6E9F0E0FA93EA93A1E096
:100A5800B0E097DEE1E6F4E0FA93EA93E6E9F0E045
:100A6800FA93EA93A1E0B0E08CDEE0E7F4E0FA93D1
:100A7800EA93E4E6F0E0FA93EA93A1E0B0E081DEDD
:100A8800EFE7F4E0FA93EA93E4E6F0E0FA93EA9306
:100A9800A1E0B0E076DEEAE8F4E0FA93EA93E4E66F
:100AA800F0E0FA93EA93A1E0B0E06BDE0895E091FC
:100AB800C000E078E1F3E091C6000895AA93E091C0
:100AC800C000E072E1F3E881E093C6002196089542
:100AD800BA93AA931A93A981BA81ED91A983BA838B
:100AE8001E2FE03019F0A12FE9DFF5CFAAE0E6DFED
:100AF800188123960895BA93AA930E9407090E8134
:100B08001F8128853985002E012AD9F0D0DF5E2F74
:100B1800583051F4AE81BF810A171B0720F42150C9
:100B280030400F5F1F4FF2CF5A3059F03F932F9349
:100B38002F5F3F4FE52FAF91BF91EC9301501040CD
:100B4800E2CFD901E0E0EC93E885F9850E940E092F
:100B58002A960895BA93AA931A930A93AA81BB81F5
:100B680012960E94D108309759F1AA81BB81149638
:100B78000E94D1088F01309761F00230E0E01E0733
:100B8800F0F0F80131978F01AA81BB811496ED939B
:100B9800FC93AA81BB811296ED91FD913196FE934B
:100BA800EE933197AC81A083AA81BB810E94D108C2
:100BB800FF232AF0ED91FD913196FE93EE9306C046
:100BC800AA81BB81EFEFFFEFED93FC9319810881B8
:100BD80025960895BA93AA932C970E94070910E0C6
:100BE800AA89BB89E0E0F0E0ED93FC93E88DF98DEC
:100BF8003196E88FF98F3197E4912E2FE03011F478
:100C08000C940208E12FE03059F4253211F411E078
:100C180006C02A93AB89BC89ED89FE890995EDC187
:100C2800E130E1F4253239F42A93AB89BC89ED89A6
:100C3800FE890995E1C112E0E0E0E98B00E02D3280
:100C480011F401E0DAC12B3219F4EBE2E98BD5C1DA
:100C5800203219F4E0E2E98BD0C102C0E23039F465
:100C680050E013E0203311F40068C7C102C0E3303C
:100C780091F4203310F02A3308F007C0AAE05A9FF5
:100C8800502DE22FE0535E0FB8C140E02E3211F430
:100C980014E0B3C10EC0E43091F4203310F02A33CD
:100CA80008F007C0AAE04A9F402DE22FE0534E0FFC
:100CB800A4C12C3619F4026015E09FC104C0E530C8
:100CC80011F00C940108E22FE33669F4EE89FF89EC
:100CD8003497EE8BFF8BA481AA93AB89BC89ED89ED
:100CE800FE89099589C1E33791F4EE89FF89349724
:100CF800EE8BFF8BAE89BF8914960E94D108EE83D4
:100D0800FF83AE81BF810E9453081E2F14C0E037B5
:100D1800F1F4EE89FF893497EE8BFF8BAE89BF899A
:100D280014960E94D108EE83FF83AE81BF810E9492
:100D38005F081E2F08600F77403011F0411708F048
:100D480001C0142F40E0E0E0E88B30E089C0E436D1
:100D580011F0E93611F4046002C0E537C1F4EAE0A5
:100D6800E88B01FF0AC0E0E0FAEC6AE97BE3E88778
:100D7800F9876A877B871AE029C0E0E1F7E260E03B
:100D880070E0E887F9876A877B8715E01FC0E83538
:100D980011F4086004C0E83711F00C940008E0E191
:100DA800E88B01FF0AC0E0E0F0E060E070E1E8876E
:100DB800F9876A877B8718E009C0E0E0F0E160E026
:100DC80070E0E887F9876A877B8714E0403011F084
:100DD8000F7701C041E001FF0BC0EE89FF8934970E
:100DE800EE8BFF8BAE89BF8914960E94D5081BC075
:100DF80002FF0DC0EE89FF893497EE8BFF8BAE8919
:100E0800BF8914960E94D1080E94A3080CC0EE89DD
:100E1800FF893497EE8BFF8BAE89BF8914960E94A9
:100E2800D10866277727EC87FD876E877F8702FFC3
:100E380016C0AF85AA2362F4EC85FD856E857F8593
:100E48000E949B08EC87FD876E877F87EDE2E98B20
:100E5800E989E03019F01F5F4F5F01C00B7F342F25
:100E680000FD18C0151710F4351708F013C007FF58
:100E780008C002FF04C00B7F2989115001C020E37C
:100E880001C020E22A93AB89BC89ED89FE890995C6
:100E98005150E8CF1417E0F4006102FF0DC00B7F3A
:100EA800E989EA93AB89BC89ED89FE8909955030B7
:100EB80009F0515011504150E0E3EA93AB89BC89E5
:100EC800ED89FE890995503009F051504150E2CF23
:100ED800312FE889E030D9F43030C1F003FF06C083
:100EE800EE81FF812591EE83FF8305C0AE81BF812E
:100EF8002D91AE83BF832A93AB89BC89ED89FE8986
:100F08000995503009F051503150E6CF68C0E88556
:100F1800F9856A857B85AC85BD858E859F850E9410
:100F2800A8082E2F2A3030F003FF02C0295C01C028
:100F3800295A01C0205D04FD28C0213360F4A8852A
:100F4800B9858A859B85A130E0E0BE07E0E08E0781
:100F5800E0E09E0709F40BC0431740F4531710F064
:100F680000FF01C01BC020E207FF0FC020E30061A3
:100F780002FF0BC00B7FE989EA93AB89BC89ED8935
:100F8800FE890995503009F051502A93AB89BC89E4
:100F9800ED89FE890995503009F051503150E885A6
:100FA800F9856A857B85AC85BD858E859F850E9480
:100FB800CD08EC87FD876E877F87E889A885B98586
:100FC8008A859B85FF27662777270E94A808E887D8
:100FD800F9876A877B870E94F90809F098CF00FF94
:100FE8000BC0503049F05150E0E2EA93AB89BC891C
:100FF800ED89FE890995F5CF10E0F8CDAA89BB895E
:101008000E94D1080E940E096A960895FF92F82E50
:1010180026970E940909DE011C960E948D080E94ED
:10102800D108309719F4EFEFFFEF27C0DE011696CD
:101038000E948D088D01DE011C960E948D080E9479
:10104800D108EE83FF83E0E0E887E987DE011A969E
:101058000E948D080E94D108FA93EA931A930A9382
:10106800EEEAF5E0FA93EA93DE011A96B3DD9F0102
:10107800AE81BF81E0E0EC93F9010E9410092A9645
:10108800FF900895BA93AA93E991F991A991B9911A
:10109800CD0161916D936623E1F7FC010895BA9340
:1010A800AA93A991B991EE27FF276D91662311F0B4
:1010B8003196FBCF0895BA93AA93AA27BB27E99143
:1010C800F9910590002011F01196FBCFFD010895CC
:1010D800BA93AA93AA81BB81CD01E881F981719164
:1010E800772311F4FC0109C06D916717C1F30196CC
:1010F800DC01662391F7EE27FF27249608951096C2
:1011080039F08DEC9AE00197F1F7A8951197C9F796
:1011180008950024AF0DB01D0895AE0FBF1F861FA0
:10112800971F0895EA1BFB0B680B790B0895F09540
:1011380060957095E195FF4F6F4F7F4F08956F2F22
:10114800660F660B762F08953F934F935F930024A5
:1011580011244427552730E2AA0FBB1F881F991F67
:10116800001C111C441F551F0E1A1F0A460B570B53
:1011780028F40E0E1F1E461F571F01C0A1603A9586
:1011880059F7FD01BC01D001CA015F914F913F9110
:101198000895DADFFD01BC010895ED91FC911197E6
:1011A8000895ED91FD916D917C9113970895ED91BE
:1011B800FD916D917D9108957E936E93FE93EE93CC
:1011C8000895E881F9816A817B810895A881B981B0
:1011D8008A819B810895E883F9836A837B830895D4
:1011E8007A936A93FA93EA9308953097604070402F
:1011F8000895EA17FB07680779070895AE17BF0730
:101208008607970708955A934A933A932A931A930D
:101218000A9308955D814C813B812A811981088157
:101228000895AC0FBD1F05900D928A95E1F70895BA
:00000001FF
