:100000000C942A000C944F0C0C94940C0C94D90C66
:100010000C9447000C9447000C947E0A0C94470003
:100020000C9447000C9447000C9447000C94470034
:100030000C9447000C940F080C9447000C9444084F
:100040000C9447000C9447000C9447000C94470014
:100050000C94470011241FBECFE5D8E0DEBFCDBF12
:1000600012E0A0E6B0E0EEE2FAE302C005900D92E5
:10007000AC30B107D9F713E0ACE0B2E001C01D929B
:10008000AC34B107E1F70E94921A0C94151D0C9440
:100090000000EF92FF920F931F937B018C0120E0F1
:1000A00030E040E05FE40E94490388238CF0C801FF
:1000B000B70120E030E040E05FE40E94C1010E940F
:1000C00007049B01AC01205030404040504806C01E
:1000D000C801B7010E9407049B01AC01B901CA0124
:1000E0001F910F91FF90EF900895A0E0B0E0EBE733
:1000F000F0E00C94BD1CDC012B01FA019C919230C4
:1001000008F439C1EB018881823008F433C194309E
:1001100069F4843009F02FC111969C91119789815F
:10012000981709F428C1A3E0B1E025C1843009F48F
:1001300021C18230A9F4923009F01DC19A01AD01AC
:1001400088E0EA010990AE01E90109929E0181501F
:10015000C1F7E201898111969C918923818308C1AD
:10016000923009F407C112962D903C901397EB0141
:100170008A819B811496AD90BD90CD90DC901797AD
:10018000EC80FD800E811F819101281B390BB90184
:1001900037FF04C066277727621B730B6032710537
:1001A0000CF061C0121613066CF537014801062EDB
:1001B00004C096948794779467940A94D2F721E0C8
:1001C00030E040E050E004C0220F331F441F551FB1
:1001D0006A95D2F721503040404050402E213F21B7
:1001E00040235123211531054105510521F021E01E
:1001F00030E040E050E079018A01E628F72808293C
:1002000019293CC0232BD1F1260E371E350146019A
:10021000062E04C096948794779467940A94D2F734
:1002200021E030E040E050E004C0220F331F441FC3
:10023000551F6A95D2F721503040404050402A2146
:100240003B214C215D21211531054105510521F04E
:1002500021E030E040E050E059016A01A628B728CB
:10026000C828D9280BC0821593052CF01C01AA249C
:10027000BB24650103C0EE24FF24870111969C91E5
:10028000D20111968C91981709F445C0992339F041
:10029000A80197012A193B094C095D0906C0A6016E
:1002A00095012E193F09400B510B57FD08C01182D3
:1002B0003382228224833583468357831DC081E0A5
:1002C00081833382228288279927DC01821B930B4A
:1002D000A40BB50B84839583A683B7830DC0220F2F
:1002E000331F441F551F24833583468357838281E0
:1002F000938101979383828324813581468157813D
:10030000DA01C9010197A109B1098F5F9F4FAF4F72
:10031000BF4328F30BC0918333822282EA0CFB1C7B
:100320000C1D1D1DE482F5820683178383E0808304
:10033000248135814681578157FF1AC0C901AA27F8
:1003400097FDA095BA2F81709070A070B0705695EF
:10035000479537952795822B932BA42BB52B848318
:100360009583A683B7838281938101969383828349
:10037000DF0101C0D201CD01CDB7DEB7E2E10C94BF
:10038000D91CA0E2B0E0E7ECF1E00C94C91C698351
:100390007A838B839C832D833E834F835887E9E048
:1003A000EE2EF12CEC0EFD1ECE010196B7010E943F
:1003B0007F058E010F5E1F4FCE010596B8010E948A
:1003C0007F058A8991E089278A8BC701B801AE0130
:1003D000475E5F4F0E9475000E94AA04A096E6E067
:1003E0000C94E51CA0E2B0E0E8EFF1E00C94C91C2D
:1003F00069837A838B839C832D833E834F835887C5
:10040000F9E0EF2EF12CEC0EFD1ECE010196B701A6
:100410000E947F058E010F5E1F4FCE010596B80129
:100420000E947F05C701B801AE01475E5F4F0E9481
:1004300075000E94AA04A096E6E00C94E51CA0E2D8
:10044000B0E0E5E2F2E00C94BD1C69837A838B8313
:100450009C832D833E834F835887CE010196BE0136
:10046000675F7F4F0E947F05CE010596BE016F5EDC
:100470007F4F0E947F059985923088F0898982306C
:10048000C8F0943019F4823051F404C0843029F457
:10049000923081F483E091E0C6C0923049F420E0CC
:1004A0009A858A89981321E02A87CE010996BBC0D4
:1004B000823049F420E09A858A89981321E02A8BBA
:1004C000CE014196B0C02D843E844F8458886D88FB
:1004D0007E888F88988CEE24FF248701AA24BB2471
:1004E000650140E050E060E070E0E0E0F0E0C10174
:1004F00081709070892BE9F0E60CF71C081D191D1E
:100500009A01AB012A0D3B1D4C1D5D1D80E090E062
:10051000A0E0B0E0E614F7040805190520F481E036
:1005200090E0A0E0B0E0BA01A901480F591F6A1F8E
:100530007B1FAA0CBB1CCC1CDD1C97FE08C081E0F5
:1005400090E0A0E0B0E0A82AB92ACA2ADB2A3196B6
:10055000E032F10549F0660C771C881C991C569412
:10056000479437942794C3CFFA85EA892B893C892D
:100570008B859C85280F391F2E5F3F4F17C0CA01FE
:1005800081709070892B61F016950795F794E79428
:1005900080E090E0A0E0B0E8E82AF92A0A2B1B2BC3
:1005A00076956795579547952F5F3F4F77FDE7CF36
:1005B0000CC0440F551F661F771F17FD4160EE0CDE
:1005C000FF1C001F111F21503040403090E05907A0
:1005D00090E0690790E4790760F32B8F3C8FDB0193
:1005E000CA018F779070A070B07080349105A1051A
:1005F000B10561F447FD0AC0E114F10401051105DC
:1006000029F0405C5F4F6F4F7F4F40781A8EFE1786
:1006100011F081E08A8F4D8F5E8F6F8F78A383E01A
:10062000898FCE0149960E94AA04A096E2E10C941B
:10063000D91CA8E1B0E0EFE1F3E00C94C91C698398
:100640007A838B839C832D833E834F83588789E0F5
:10065000E82EF12CEC0EFD1ECE010196B7010E9492
:100660007F058E010F5E1F4FCE010596B8010E94D7
:100670007F058985823040F08989823028F0C70162
:10068000B8010E94F70501C08FEF6896E6E00C9470
:10069000E51CA8E1B0E0EFE4F3E00C94C91C698329
:1006A0007A838B839C832D833E834F83588789E095
:1006B000E82EF12CEC0EFD1ECE010196B7010E9432
:1006C0007F058E010F5E1F4FCE010596B8010E9477
:1006D0007F058985823040F08989823028F0C70102
:1006E000B8010E94F70501C08FEF6896E6E00C9410
:1006F000E51CA8E1B0E0EFE7F3E00C94C91C6983C6
:100700007A838B839C832D833E834F83588789E034
:10071000E82EF12CEC0EFD1ECE010196B7010E94D1
:100720007F058E010F5E1F4FCE010596B8010E9416
:100730007F058985823040F08989823028F0C701A1
:10074000B8010E94F70501C081E06896E6E00C94CC
:10075000E51CA8E0B0E0EFEAF3E00C94C61C9B01B6
:10076000AC0183E08983DA01C9018827B7FD83954D
:100770009927AA27BB27B82E211531054105510518
:1007800019F482E089833AC08823A9F0203080E000
:10079000380780E0480780E8580729F460E070E0F7
:1007A00080E09FEC30C0EE24FF248701E21AF30AB8
:1007B000040B150B02C079018A018EE1C82ED12CE1
:1007C000DC82CB82ED82FE820F831887C801B701DD
:1007D0000E945B0401971816190684F4082E04C0C1
:1007E000EE0CFF1C001F111F0A94D2F7ED82FE824F
:1007F0000F831887C81AD90ADC82CB82BA82CE014D
:1008000001960E94AA042896E9E00C94E21CACE050
:10081000B0E0EDE0F4E00C94CD1C69837A838B8327
:100820009C83CE010196BE016B5F7F4F0E947F05C6
:100830008D81823061F1823050F1843021F48E81DB
:10084000882351F12EC02F81388537FD20C06E815D
:100850002F3131051CF06623F9F023C08EE190E0C2
:10086000821B930B29853A854B855C8504C0569580
:100870004795379527958A95D2F76623B1F050951D
:100880004095309521953F4F4F4F5F4F0EC020E070
:1008900030E040E050E009C02FEF3FEF4FEF5FE75F
:1008A00004C020E030E040E050E8B901CA012C96D5
:1008B000E2E00C94E91CEF92FF920F931F937B01EF
:1008C0008C0180E0E81680E0F80681E0080780E00F
:1008D000180788F48FEFE816F1040105110531F0CF
:1008E00028F088E090E0A0E0B0E017C080E090E061
:1008F000A0E0B0E012C080E0E81680E0F80680E0FA
:10090000080781E0180728F088E190E0A0E0B0E057
:1009100004C080E190E0A0E0B0E020E230E040E000
:1009200050E0281B390B4A0B5B0B04C0169507954A
:10093000F794E7948A95D2F7F701E55FFE4F80813F
:10094000281B310941095109C9011F910F91FF90DD
:10095000EF900895DF92EF92FF920F931F93FC01A7
:10096000E480F58006811781D1808081823048F44F
:1009700080E090E0A0E1B0E0E82AF92A0A2B1B2BE6
:10098000A5C0843009F49FC0823021F4EE24FF24F6
:10099000870105C0E114F1040105110519F4E0E037
:1009A000F0E096C0628173819FEF623879070CF0A6
:1009B0005BC022E83FEF261B370B2A3131052CF0B4
:1009C00020E030E040E050E02AC0B801A701022E4C
:1009D00004C076956795579547950A94D2F781E0BC
:1009E00090E0A0E0B0E004C0880F991FAA1FBB1FD1
:1009F0002A95D2F70197A109B1098E219F21A02341
:100A0000B1230097A105B10521F081E090E0A0E0BD
:100A1000B0E09A01AB01282B392B4A2B5B2BDA0172
:100A2000C9018F779070A070B07080349105A105D6
:100A3000B10539F427FF09C0205C3F4F4F4F5F4F8E
:100A400004C0215C3F4F4F4F5F4FE0E0F0E02030AB
:100A5000A0E03A07A0E04A07A0E45A0710F0E1E05E
:100A6000F0E079018A0127C06038710564F5FB0167
:100A7000E158FF4FD801C7018F779070A070B07018
:100A800080349105A105B10539F4E7FE0DC080E47D
:100A900090E0A0E0B0E004C08FE390E0A0E0B0E020
:100AA000E80EF91E0A1F1B1F17FF05C016950795B4
:100AB000F794E794319687E016950795F794E794B5
:100AC0008A95D1F705C0EE24FF248701EFEFF0E00F
:100AD0006E2F679566276795902F9F77D794DD24B3
:100AE000D7948E2F8695492F462B582F5D29B70115
:100AF000CA011F910F91FF90EF90DF900895FC01C4
:100B0000DB01408151812281622F6F7770E0221FCB
:100B10002227221F9381892F880F822B282F30E0D4
:100B2000991F9927991F11969C93119721153105AB
:100B3000A9F5411551056105710511F482E037C031
:100B400082E89FEF13969C938E9312979A01AB01C4
:100B500067E0220F331F441F551F6A95D1F783E0CA
:100B60008C930DC0220F331F441F551F12968D9179
:100B70009C911397019713969C938E931297203014
:100B800080E0380780E0480780E4580758F314965F
:100B90002D933D934D935C93179708952F3F310507
:100BA00079F4411551056105710519F484E08C93C0
:100BB000089564FF03C081E08C9312C01C9210C0A2
:100BC0002F57304013963C932E93129783E08C93CB
:100BD00087E0440F551F661F771F8A95D1F7706411
:100BE00014964D935D936D937C93179708951F937F
:100BF000DC01FB019C91923008F447C08081823077
:100C000008F443C0943051F411961C91843099F546
:100C10008181682F70E0611B71093FC0843021F031
:100C2000923031F48230B9F18181882389F12DC06D
:100C300011961C9111978230F1F081811817D9F427
:100C400012962D913C91139782819381821793077D
:100C500094F028173907BCF014968D919D910D9052
:100C6000BC91A02D248135814681578128173907F1
:100C70004A075B0718F4112341F00AC08217930753
:100C8000A407B50740F4112319F061E070E005C036
:100C90006FEF7FEF02C060E070E0CB011F9108951D
:100CA000DF93CF930F92CDB7DEB789838091140283
:100CB000882F90E0FC01E25EFD4F89818083809166
:100CC0001402882F90E0019626E930E0B9010E94D5
:100CD000741C80931402909114028091150298174D
:100CE00061F480911502882F90E0019626E930E0AA
:100CF000B9010E94741C809315020F90CF91DF916F
:100D00000895DF93CF9300D0CDB7DEB79091140252
:100D100080911502981711F41A8217C0809115025C
:100D2000882F90E0FC01E25EFD4F808189838091F5
:100D30001502882F90E0019626E930E0B9010E9463
:100D4000741C8093150289818A838A810F900F9089
:100D5000CF91DF910895DF93CF93CDB7DEB7AAE2AD
:100D6000B0E0EAE2F0E0808180618C93AAE2B0E03A
:100D7000EAE2F0E0808188608C93AAE2B0E0EAE2E7
:100D8000F0E080818B7F8C93E0E4F0E086E8808364
:100D9000E9E2F0E083E38083E9E2F0E083E380834B
:100DA000CF91DF910895DF93CF930F92CDB7DEB748
:100DB0008983EBE2F0E08081829586958770882FA9
:100DC00090E0817090700097A1F3ECE2F0E08981EF
:100DD0008083EBE2F0E08081829586958695837032
:100DE000882F90E081709070009799F3ABE2B0E0AB
:100DF000EBE2F0E0808180648C930F90CF91DF91E3
:100E00000895DF93CF9300D00F92CDB7DEB78983DB
:100E10007B836A83AAE2B0E0EAE2F0E0808180644A
:100E20008C938A819B819093110280931002ECE253
:100E3000F0E0898180830F900F900F90CF91DF9128
:100E40000895DF93CF9300D00F92CDB7DEB79B8389
:100E50008A8319820EC08981282F30E08A819B8184
:100E6000FC01E20FF31F80810E94D30689818F5F0E
:100E700089838981282F30E08A819B81FC01E20FE0
:100E8000F31F8081882339F70F900F900F90CF9137
:100E9000DF910895DF93CF93CDB7DEB7EBE2F0E0BB
:100EA00080818823DCF7ECE2F0E08081CF91DF9154
:100EB0000895EF92FF920F931F93DF93CF93CDB7D7
:100EC000DEB728970FB6F894DEBF0FBECDBF6D8397
:100ED0007E838F83988781E090E0A0E0B0E08983F3
:100EE0009A83AB83BC8336C089819A81AB81BC81F4
:100EF0002AE030E040E050E0BC01CD010E94551CEA
:100F00007B018C018D819E81AF81B8852AE030E024
:100F100040E050E0BC01CD010E94871CDC01CB0108
:100F20008E0D9F1DA01FB11F89839A83AB83BC8345
:100F30008D819E81AF81B8852AE030E040E050E0AD
:100F4000BC01CD010E94871CDA01C9018D839E83FB
:100F5000AF83B8878D819E81AF81B8850097A10549
:100F6000B10511F689819A81AB81BC812AE030E01C
:100F700040E050E0BC01CD010E94871CDC01CB01A8
:100F8000805D0E94D30689819A81AB81BC812AE071
:100F900030E040E050E0BC01CD010E94871CDA0146
:100FA000C90189839A83AB83BC8389819A81AB8190
:100FB000BC8181309105A105B105A1F628960FB637
:100FC000F894DEBF0FBECDBFCF91DF911F910F917F
:100FD000FF90EF900895DF93CF9300D000D0CDB76E
:100FE000DEB79A8389837C836B83AAE2B0E0EAE26E
:100FF000F0E0808180688C938B819C8190930F02BC
:1010000080930E0289819A8190930D0280930C0245
:101010000F900F900F900F90CF91DF9108951F9236
:101020000F920FB60F9211242F933F934F935F931C
:101030006F937F938F939F93AF93BF93EF93FF93A0
:10104000DF93CF93CDB7DEB7A0910C02B0910D0224
:10105000ECE2F0E080818C93E0910E02F0910F02BF
:101060000995CF91DF91FF91EF91BF91AF919F9142
:101070008F917F916F915F914F913F912F910F9041
:101080000FBE0F901F9018951F920F920FB60F92E0
:1010900011242F933F934F935F936F937F938F937D
:1010A0009F93AF93BF93EF93FF93DF93CF93CDB70E
:1010B000DEB78091100290911102009729F0E09123
:1010C0001002F09111020995CF91DF91FF91EF91FC
:1010D000BF91AF919F918F917F916F915F914F9150
:1010E0003F912F910F900FBE0F901F901895DF9397
:1010F000CF930F92CDB7DEB7EBE2F0E0808119829B
:10110000882314F481E0898389810F90CF91DF9146
:101110000895DF93CF93CDB7DEB7AFE4B0E0EFE44F
:10112000F0E0808182608C93AFE4B0E0EFE4F0E027
:1011300080818E7F8C93AEE4B0E0EEE4F0E08081BD
:1011400088608C93AEE4B0E0EEE4F0E080818061F2
:101150008C93CF91DF910895DF93CF93CDB7DEB716
:10116000A3E5B0E0E3E5F0E0808180648C93A3E543
:10117000B0E0E3E5F0E0808188608C93A3E5B0E027
:10118000E3E5F0E0808180628C93A3E5B0E0E3E5E5
:10119000F0E080818F7E8C93CF91DF910895DF9373
:1011A000CF93CDB7DEB7A5E4B0E0E5E4F0E0808111
:1011B00080648C93A5E4B0E0E5E4F0E08081886091
:1011C0008C93A5E4B0E0E5E4F0E0808180628C934C
:1011D000A5E4B0E0E5E4F0E080818F7E8C93CF91D0
:1011E000DF910895DF93CF930F92CDB7DEB7898358
:1011F000A3E5B0E0E3E5F0E0808180648C93A3E5B3
:10120000B0E0E3E5F0E0808188608C93A3E5B0E096
:10121000E3E5F0E0808180628C93A3E5B0E0E3E554
:10122000F0E080818F7E8C93A3E5B0E0E3E5F0E011
:101230008081887F8C93A3E5B0E0E3E5F0E09081C6
:101240008981892B8C930F90CF91DF910895DF9343
:10125000CF930F92CDB7DEB78983A5E4B0E0E5E484
:10126000F0E0808180648C93A5E4B0E0E5E4F0E0F8
:10127000808188608C93A5E4B0E0E5E4F0E08081B3
:1012800080628C93A5E4B0E0E5E4F0E080818F7E9D
:101290008C93A5E4B0E0E5E4F0E08081887F8C9356
:1012A000A5E4B0E0E5E4F0E090818981892B8C939E
:1012B0000F90CF91DF910895DF93CF930F92CDB729
:1012C000DEB78983ECE5F0E0898180830F90CF91D0
:1012D000DF910895DF93CF930F92CDB7DEB7898367
:1012E000E3E4F0E0898180830F90CF91DF9108954E
:1012F000DF93CF9300D000D0CDB7DEB789836A8368
:101300008981282F30E03C832B838B819C8100973F
:1013100031F02B813C812130310581F01DC0AFE4DB
:10132000B0E0EFE4F0E0808180688C93AFE4B0E05F
:10133000EFE4F0E080818F7B8C930EC0AFE4B0E0EF
:10134000EFE4F0E0808180628C93AFE4B0E0EFE402
:10135000F0E080818F7E8C93AEE4B0E0EEE4F0E0CC
:101360008081887F8C93AEE4B0E0EEE4F0E0908181
:101370008A81892B8C930F900F900F900F90CF91B3
:10138000DF910895DF93CF9300D000D00F92CDB7B7
:10139000DEB789837B836A838981282F30E03D8390
:1013A0002C838C819D81009731F02C813D812130EF
:1013B000310541F00DC0EAE4F0E08A819B81918320
:1013C000808306C0E8E4F0E08A819B81918380837A
:1013D0000F900F900F900F900F90CF91DF91089585
:1013E000DF93CF930F92CDB7DEB78983ECE5F0E0C2
:1013F000898180830F90CF91DF910895DF93CF9300
:1014000000D0CDB7DEB79A838983E6E4F0E0898126
:101410009A81918380830F900F90CF91DF910895EF
:10142000DF93CF930F92CDB7DEB78983E3E4F0E08B
:10143000898180830F90CF91DF910895DF93CF93BF
:101440000F92CDB7DEB78983AEE4B0E0EEE4F0E012
:101450008081887F8C93AEE4B0E0EEE4F0E0908190
:101460008981892B8C930F90CF91DF910895DF9321
:10147000CF93CDB7DEB7ECE4F0E011821082CF91CC
:10148000DF910895DF93CF93CDB7DEB7ECE4F0E0C2
:1014900080819181CF91DF910895DF93CF93CDB774
:1014A000DEB7AEE4B0E0EEE4F0E08081887F8C93BC
:1014B000AEE4B0E0EEE4F0E080818C93CF91DF9178
:1014C0000895DF93CF9300D0CDB7DEB79A83898399
:1014D00089819A819093B5028093B4020F900F9006
:1014E000CF91DF910895DF93CF93CDB7DEB7E6E4D8
:1014F000F0E080819181CF91DF9108951F920F924A
:101500000FB60F9211242F933F934F935F936F93D6
:101510007F938F939F93AF93BF93EF93FF93DF934B
:10152000CF93CDB7DEB7E091B402F091B502099543
:10153000CF91DF91FF91EF91BF91AF919F918F91EB
:101540007F916F915F914F913F912F910F900FBEBF
:101550000F901F901895DF93CF9300D00F92CDB7C7
:10156000DEB789838981282F30E03B832A838A81F3
:101570009B818130910589F02A813B8122303105A0
:10158000A1F08A819B810097B9F4ABE5B0E0EBE56F
:10159000F0E0808180648C930FC0ABE5B0E0EBE5B8
:1015A000F0E0808180688C9307C0ABE5B0E0EBE5AC
:1015B000F0E0808180628C930F900F900F90CF911C
:1015C000DF910895DF93CF9300D00F92CDB7DEB7B0
:1015D00089838981282F30E03B832A838A819B81FC
:1015E0008130910589F02A813B8122303105A1F0BB
:1015F0008A819B810097B9F4ABE5B0E0EBE5F0E0C0
:1016000080818F7B8C930FC0ABE5B0E0EBE5F0E021
:1016100080818F778C9307C0ABE5B0E0EBE5F0E01D
:1016200080818F7D8C930F900F900F90CF91DF91E1
:101630000895DF93CF9300D00F92CDB7DEB78983A3
:101640008981282F30E03B832A838A819B818130E6
:10165000910521F12A813B81223031052CF48A81C8
:101660009B81009761F046C02A813B812230310581
:1016700099F18A819B8183309105F9F03BC0A5E502
:10168000B0E0E5E5F0E0808182608C93A5E5B0E014
:10169000E5E5F0E080818E7F8C932CC0A5E5B0E07D
:1016A000E5E5F0E0808182608C93A5E5B0E0E5E5BA
:1016B000F0E0808181608C931DC0A5E5B0E0E5E598
:1016C000F0E080818D7F8C93A5E5B0E0E5E5F0E06A
:1016D00080818E7F8C930EC0A5E5B0E0E5E5F0E05B
:1016E00080818D7F8C93A5E5B0E0E5E5F0E0808119
:1016F00081608C930F900F900F90CF91DF910895A0
:10170000DF93CF9300D00F92CDB7DEB78983898165
:10171000282F30E03B832A838A819B818130910589
:1017200021F12A813B81223031052CF48A819B8171
:10173000009761F046C02A813B812230310599F142
:101740008A819B8183309105F9F03BC0A5E5B0E02B
:10175000E5E5F0E0808188608C93A5E5B0E0E5E503
:10176000F0E080818B7F8C932CC0A5E5B0E0E5E5AF
:10177000F0E0808188608C93A5E5B0E0E5E5F0E0DD
:10178000808184608C931DC0A5E5B0E0E5E5F0E0C4
:101790008081877F8C93A5E5B0E0E5E5F0E080816E
:1017A0008B7F8C930EC0A5E5B0E0E5E5F0E080818D
:1017B000877F8C93A5E5B0E0E5E5F0E0808184606B
:1017C0008C930F900F900F90CF91DF910895DF933E
:1017D000CF9300D00F92CDB7DEB789838981282FB0
:1017E00030E03B832A838A819B81009731F02A81F4
:1017F0003B812130310549F00FC0A4E5B0E0E4E5BC
:10180000F0E080818F7B8C9307C0A4E5B0E0E4E535
:10181000F0E0808180648C930F900F900F90CF91B7
:10182000DF910895DF93CF9300D00F92CDB7DEB74D
:1018300089838981282F30E03B832A838A819B8199
:10184000009731F02A813B812130310549F00FC0EA
:10185000AFE5B0E0EFE5F0E080818F778C9307C0D3
:10186000AFE5B0E0EFE5F0E0808180688C930F9009
:101870000F900F90CF91DF910895DF93CF9300D019
:10188000CDB7DEB79A83898389819A8190931702B5
:10189000809316020F900F90CF91DF9108951F92C1
:1018A0000F920FB60F9211242F933F934F935F9394
:1018B0006F937F938F939F93AF93BF93EF93FF9318
:1018C000DF93CF93CDB7DEB78091160290911702C8
:1018D000009729F0E0911602F09117020995CF9137
:1018E000DF91FF91EF91BF91AF919F918F917F9188
:1018F0006F915F914F913F912F910F900FBE0F907D
:101900001F901895DF93CF9300D0CDB7DEB79A83A1
:10191000898389819A8190931902809318020F908C
:101920000F90CF91DF9108951F920F920FB60F92F3
:1019300011242F933F934F935F936F937F938F93D4
:101940009F93AF93BF93EF93FF93DF93CF93CDB765
:10195000DEB78091180290911902009729F0E0916A
:101960001802F09119020995CF91DF91FF91EF9143
:10197000BF91AF919F918F917F916F915F914F91A7
:101980003F912F910F900FBE0F901F901895DF93EE
:10199000CF9300D0CDB7DEB79A83898389819A81AE
:1019A00090931B0280931A020F900F90CF91DF91BA
:1019B00008951F920F920FB60F9211242F933F9309
:1019C0004F935F936F937F938F939F93AF93BF9347
:1019D000EF93FF93DF93CF93CDB7DEB780911A02D9
:1019E00090911B02009729F0E0911A02F0911B02DE
:1019F0000995CF91DF91FF91EF91BF91AF919F91A9
:101A00008F917F916F915F914F913F912F910F90A7
:101A10000FBE0F901F901895DF93CF93CDB7DEB711
:101A200029970FB6F894DEBF0FBECDBF89836A83B6
:101A30004B838981843008F0B0C18A81883008F0F6
:101A4000ACC18B81813009F06FC08981282F30E0D3
:101A500039872887888599858130910549F12885BE
:101A60003985223031052CF488859985009761F0FD
:101A700094C1288539852230310571F18885998591
:101A800083309105E9F189C1AAE3B0E0EAE3F0E02F
:101A90008081482F8A81282F30E081E090E0022E5B
:101AA00002C0880F991F0A94E2F7842B8C9375C1AA
:101AB000A7E3B0E0E7E3F0E08081482F8A81282F98
:101AC00030E081E090E0022E02C0880F991F0A9456
:101AD000E2F7842B8C9361C1A4E3B0E0E4E3F0E08F
:101AE0008081482F8A81282F30E081E090E0022E0B
:101AF00002C0880F991F0A94E2F7842B8C934DC182
:101B0000A1E3B0E0E1E3F0E08081482F8A81282F53
:101B100030E081E090E0022E02C0880F991F0A9405
:101B2000E2F7842B8C9339C18B81882309F074C030
:101B30008981282F30E03F832E838E819F818130E1
:101B4000910559F12E813F81223031052CF48E818F
:101B50009F81009769F021C12E813F81223031059C
:101B600089F18E819F818330910509F440C015C1B0
:101B7000AAE3B0E0EAE3F0E08081482F8A81282FD1
:101B800030E081E090E0022E02C0880F991F0A9495
:101B9000E2F7809584238C9300C1A7E3B0E0E7E3EC
:101BA000F0E08081482F8A81282F30E081E090E0AA
:101BB000022E02C0880F991F0A94E2F780958423B1
:101BC0008C93EBC0A4E3B0E0E4E3F0E08081482F25
:101BD0008A81282F30E081E090E0022E02C0880F39
:101BE000991F0A94E2F7809584238C93D6C0A1E3D1
:101BF000B0E0E1E3F0E08081482F8A81282F30E0D7
:101C000081E090E0022E02C0880F991F0A94E2F74B
:101C1000809584238C93C1C08B81823009F0BDC034
:101C20008981282F30E03D832C838C819D818130F8
:101C3000910509F43EC02C813D81223031052CF400
:101C40008C819D81009771F0A8C02C813D8122304C
:101C5000310509F455C08C819D818330910509F4CB
:101C600076C09BC0AAE3B0E0EAE3F0E08081482FB1
:101C70008A81282F30E081E090E002C0880F991F10
:101C80002A95E2F7809584238C93ABE3B0E0EBE3F5
:101C9000F0E08081482F8A81282F30E081E090E0B9
:101CA000022E02C0880F991F0A94E2F7842B8C93AE
:101CB00074C0A7E3B0E0E7E3F0E08081482F8A81B9
:101CC000282F30E081E090E002C0880F991F2A950C
:101CD000E2F7809584238C93A8E3B0E0E8E3F0E09A
:101CE0008081482F8A81282F30E081E090E0022E09
:101CF00002C0880F991F0A94E2F7842B8C934DC081
:101D0000A4E3B0E0E4E3F0E08081482F8A81282F4B
:101D100030E081E090E002C0880F991F2A95E2F739
:101D2000809584238C93A5E3B0E0E5E3F0E0808127
:101D3000482F8A81282F30E081E090E0022E02C0F7
:101D4000880F991F0A94E2F7842B8C9326C0A1E395
:101D5000B0E0E1E3F0E08081482F8A81282F30E075
:101D600081E090E002C0880F991F2A95E2F78095E4
:101D700084238C93A2E3B0E0E2E3F0E08081482F7B
:101D80008A81282F30E081E090E0022E02C0880F87
:101D9000991F0A94E2F7842B8C9329960FB6F89436
:101DA000DEBF0FBECDBFCF91DF910895DF93CF93FC
:101DB000CDB7DEB728970FB6F894DEBF0FBECDBF04
:101DC00089836A838981843008F09AC08A818F3F31
:101DD00099F58981282F30E038872F838F81988566
:101DE00081309105D1F02F813885223031052CF4D6
:101DF0008F819885009761F083C02F8138852230CC
:101E0000310581F08F8198858330910581F078C00C
:101E1000EAE3F0E08FEF808373C0E7E3F0E08FEF59
:101E200080836EC0E4E3F0E08FEF808369C0E1E37C
:101E3000F0E08FEF808364C08A81882379F58981FF
:101E4000282F30E03E832D838D819E818130910546
:101E5000C9F02D813E81223031052CF48D819E8187
:101E6000009761F04DC02D813E812230310571F027
:101E70008D819E818330910569F042C0EAE3F0E0F4
:101E800010823EC0E7E3F0E010823AC0E4E3F0E005
:101E9000108236C0E1E3F0E0108232C08981282F41
:101EA00030E03C832B838B819C8181309105D1F084
:101EB0002B813C81223031052CF48B819C81009751
:101EC00061F01EC02B813C812230310581F08B8175
:101ED0009C818330910581F013C0EAE3F0E08A81B0
:101EE00080830EC0E7E3F0E08A81808309C0E4E3E9
:101EF000F0E08A81808304C0E1E3F0E08A8180839E
:101F000028960FB6F894DEBF0FBECDBFCF91DF91FC
:101F10000895DF93CF93CDB7DEB729970FB6F89426
:101F2000DEBF0FBECDBF89836A834B838981843036
:101F300008F021C18A81883008F01DC18B81813071
:101F400009F06FC08981282F30E03987288788857C
:101F500099858130910549F12885398522303105EF
:101F60002CF488859985009761F005C1288539850D
:101F70002230310571F18885998583309105E9F129
:101F8000FAC0ABE3B0E0EBE3F0E08081482F8A8158
:101F9000282F30E081E090E0022E02C0880F991FC8
:101FA0000A94E2F7842B8C93E6C0A8E3B0E0E8E360
:101FB000F0E08081482F8A81282F30E081E090E096
:101FC000022E02C0880F991F0A94E2F7842B8C938B
:101FD000D2C0A5E3B0E0E5E3F0E08081482F8A813C
:101FE000282F30E081E090E0022E02C0880F991F78
:101FF0000A94E2F7842B8C93BEC0A2E3B0E0E2E344
:10200000F0E08081482F8A81282F30E081E090E045
:10201000022E02C0880F991F0A94E2F7842B8C933A
:10202000AAC08B81882309F074C08981282F30E0F1
:102030003F832E838E819F818130910559F12E81BE
:102040003F81223031052CF48E819F81009769F009
:1020500092C02E813F812230310589F18E819F818E
:102060008330910509F440C086C0ABE3B0E0EBE3F8
:10207000F0E08081482F8A81282F30E081E090E0D5
:10208000022E02C0880F991F0A94E2F780958423DC
:102090008C9371C0A8E3B0E0E8E3F0E08081482FC2
:1020A0008A81282F30E081E090E0022E02C0880F64
:1020B000991F0A94E2F7809584238C935CC0A5E372
:1020C000B0E0E5E3F0E08081482F8A81282F30E0FE
:1020D00081E090E0022E02C0880F991F0A94E2F777
:1020E000809584238C9347C0A2E3B0E0E2E3F0E064
:1020F0008081482F8A81282F30E081E090E0022EF5
:1021000002C0880F991F0A94E2F7809584238C936C
:1021100032C08981282F30E03D832C838C819D81C2
:1021200081309105D1F02C813D81223031052CF494
:102130008C819D81009761F01EC02C813D812230F1
:10214000310581F08C819D818330910581F013C030
:10215000EBE3F0E08B8180830EC0E8E3F0E08B815D
:10216000808309C0E5E3F0E08B81808304C0E2E373
:10217000F0E08B81808329960FB6F894DEBF0FBE06
:10218000CDBFCF91DF910895DF93CF9300D000D0E2
:10219000CDB7DEB789836A838981282F30E03C83FD
:1021A0002B838B819C8181309105D1F02B813C81E7
:1021B000223031052CF48B819C81009761F01EC088
:1021C0002B813C812230310581F08B819C818330D1
:1021D000910581F013C0EBE3F0E08A8180830EC0AB
:1021E000E8E3F0E08A81808309C0E5E3F0E08A81DA
:1021F000808304C0E2E3F0E08A8180830F900F9037
:102200000F900F90CF91DF910895DF93CF9300D07F
:1022100000D0CDB7DEB789836A838981843008F026
:1022200077C08A81883008F073C08981282F30E018
:102230003C832B838B819C818130910559F12B81CB
:102240003C81223031052CF48B819C81009769F010
:102250005FC02B813C812230310589F18B819C81CB
:102260008330910509F440C053C0ABE3B0E0EBE329
:10227000F0E08081482F8A81282F30E081E090E0D3
:10228000022E02C0880F991F0A94E2F780958423DA
:102290008C933EC0A8E3B0E0E8E3F0E08081482FF3
:1022A0008A81282F30E081E090E0022E02C0880F62
:1022B000991F0A94E2F7809584238C9329C0A5E3A3
:1022C000B0E0E5E3F0E08081482F8A81282F30E0FC
:1022D00081E090E0022E02C0880F991F0A94E2F775
:1022E000809584238C9314C0A2E3B0E0E2E3F0E095
:1022F0008081482F8A81282F30E081E090E0022EF3
:1023000002C0880F991F0A94E2F7809584238C936A
:102310000F900F900F900F90CF91DF910895DF9362
:10232000CF9300D00F92CDB7DEB7898389818430F7
:1023300070F58981282F30E03B832A838A819B8135
:1023400081309105C9F02A813B81223031052CF47E
:102350008A819B81009761F01AC02A813B812230DB
:10236000310571F08A819B818330910569F00FC03E
:10237000EBE3F0E010820BC0E8E3F0E0108207C06E
:10238000E5E3F0E0108203C0E2E3F0E010820F909A
:102390000F900F90CF91DF910895DF93CF9300D0EE
:1023A00000D0CDB7DEB789836A838981843008F095
:1023B00072C08A81883008F06EC08981282F30E091
:1023C0003C832B838B819C818130910549F12B814A
:1023D0003C81223031052CF48B819C81009761F087
:1023E0005AC02B813C812230310571F18B819C8157
:1023F00083309105E9F14FC0ABE3B0E0EBE3F0E0EF
:102400008081482F8A81282F30E081E090E0022EE1
:1024100002C0880F991F0A94E2F784278C933BC06F
:10242000A8E3B0E0E8E3F0E08081482F8A81282F1C
:1024300030E081E090E0022E02C0880F991F0A94DC
:10244000E2F784278C9327C0A5E3B0E0E5E3F0E052
:102450008081482F8A81282F30E081E090E0022E91
:1024600002C0880F991F0A94E2F784278C9313C047
:10247000A2E3B0E0E2E3F0E08081482F8A81282FD8
:1024800030E081E090E0022E02C0880F991F0A948C
:10249000E2F784278C930F900F900F900F90CF91BD
:1024A000DF910895DF93CF9300D00F92CDB7DEB7C1
:1024B00089838981843008F03EC08981282F30E0EB
:1024C0003B832A838A819B8181309105E9F02A81AF
:1024D0003B81223031052CF48A819B81009761F089
:1024E0002AC02A813B8122303105B1F08A819B814B
:1024F00083309105C9F01FC0ABE3B0E0EBE3F0E03F
:10250000808180958C9317C0A8E3B0E0E8E3F0E009
:10251000808180958C930FC0A5E3B0E0E5E3F0E007
:10252000808180958C9307C0A2E3B0E0E2E3F0E005
:10253000808180958C930F900F900F90CF91DF91B9
:102540000895DF93CF9300D000D00F92CDB7DEB7C0
:102550008A836B838A81843008F06BC08B818830DA
:1025600008F067C08A81282F30E03D832C834C819E
:102570005D814130510541F18C819D818230910511
:1025800034F42C813D812115310561F052C04C811C
:102590005D814230510551F18C819D8183309105DF
:1025A000B9F147C0E9E3F0E08081282F30E08B816A
:1025B000882F90E0A90102C0559547958A95E2F7CA
:1025C000CA018170898335C0E6E3F0E08081282F5D
:1025D00030E08B81882F90E0A90102C05595479586
:1025E0008A95E2F7CA018170898323C0E3E3F0E0B2
:1025F0008081282F30E08B81882F90E0A90102C0D4
:10260000559547958A95E2F7CA018170898311C073
:10261000E0E3F0E08081282F30E08B81882F90E08C
:10262000A90102C0559547958A95E2F7CA018170C4
:10263000898389810F900F900F900F900F90CF9109
:10264000DF910895DF93CF9300D000D0CDB7DEB7F0
:102650008A838A81843090F58A81282F30E03C83F8
:102660002B838B819C8181309105D1F02B813C8122
:10267000223031052CF48B819C81009761F01EC0C3
:102680002B813C812230310581F08B819C8183300C
:10269000910581F013C0E9E3F0E0808189830EC0E9
:1026A000E6E3F0E08081898309C0E3E3F0E0808124
:1026B000898304C0E0E3F0E08081898389810F9001
:1026C0000F900F900F90CF91DF910895DF93CF93EC
:1026D000CDB7DEB7EBE3F0E0808160E040E00E9440
:1026E0000C0DA6E2B0E0E6E2F0E0808187688C9312
:1026F000E7E2F0E080E48083CF91DF910895DF93FB
:10270000CF93CDB7DEB72F970FB6F894DEBF0FBECD
:10271000CDBF8F87E7E2F0E08F858770806480838C
:10272000A6E2B0E0E6E2F0E0808180648C93E6E22D
:10273000F0E08081882F90E0807190700097B9F36D
:10274000A6E2B0E0E6E2F0E0808180618C9380E078
:1027500090E0A0E8BFE38B879C87AD87BE876B8541
:102760007C858D859E8520E030E04AEF54E40E9410
:102770001F02DC01CB018F839887A987BA876F81FD
:10278000788589859A8520E030E040E85FE30E9403
:10279000790388232CF481E090E09E838D833FC0F1
:1027A0006F81788589859A8520E03FEF4FE757E470
:1027B0000E94190318164CF56B857C858D859E85C6
:1027C00020E030E040E251E40E941F02DC01CB0136
:1027D000BC01CD010E944900DC01CB019E838D83A9
:1027E0000FC088EC90E09C838B838B819C81019748
:1027F000F1F79C838B838D819E8101979E838D83CE
:102800008D819E81009769F714C06F8178858985D5
:102810009A850E944900DC01CB019E838D838D81C6
:102820009E819A83898389819A810197F1F79A839E
:102830008983E4E2F0E0808191812F960FB6F894CD
:10284000DEBF0FBECDBFCF91DF910895DF93CF9351
:10285000CDB7DEB70E94AC080E9489080E94CF085D
:1028600083E065E041E00E940C0D83E064E041E01C
:102870000E940C0D83E067E041E00E940C0D81E0B6
:1028800063E041E00E940C0DCF91DF910895DF934A
:10289000CF9300D00F92CDB7DEB78B8380E29EE45A
:1028A0000E94FE0980E062E00E9478098B81882FF7
:1028B00090E09C01220F331FC901880F991F880FD8
:1028C000991F820F931F82519D4F9A83898329817B
:1028D0003A8180E0B9010E94C2090F900F900F90D9
:1028E000CF91DF910895DF93CF9300D00F92CDB7B2
:1028F000DEB78B8380E29EE40E94FE0981E062E005
:102900000E9478098B81882F90E09C01220F331F51
:10291000C901880F991F880F991F820F931F825139
:102920009D4F9A83898329813A8181E0B9010E9470
:10293000C2090F900F900F90CF91DF910895DF9310
:10294000CF9300D00F92CDB7DEB78B8383E00E9488
:10295000F2088B81882F90E086509F4F880F991F37
:102960009A83898389810E945C090F900F900F9050
:10297000CF91DF910895DF93CF9300D00F92CDB721
:10298000DEB78B8383E00E9427098B81882F90E03C
:10299000AA2797FDA095BA2FBC01CD010E94A903DB
:1029A000DC01CB01BC01CD0120E53DE84BE151E468
:1029B0000E941F02DC01CB01BC01CD0120E030E808
:1029C0004BE354E40E94F201DC01CB01BC01CD01D8
:1029D0000E944900DC01CB019A83898389810E948E
:1029E0006A090F900F900F90CF91DF910895DF93B8
:1029F000CF9300D000D0CDB7DEB789836A838981B9
:102A0000282F30E03C832B838B819C818130910582
:102A1000D9F02B813C81223031052CF48B819C81B3
:102A2000009761F022C02B813C812230310591F06A
:102A30008B819C818330910599F017C080E06A8179
:102A400041E00E940C0D11C081E06A8141E00E94CA
:102A50000C0D0BC082E06A8141E00E940C0D05C0A4
:102A600083E06A8141E00E940C0D0F900F900F905F
:102A70000F90CF91DF910895DF93CF9300D00F9205
:102A8000CDB7DEB789838981282F30E03B832A8345
:102A90008A819B8181309105D1F02A813B8122304E
:102AA00031052CF48A819B81009761F01EC02A8138
:102AB0003B812230310581F08A819B8183309105F1
:102AC00081F013C080E06FEF0E94D60E0EC081E04F
:102AD0006FEF0E94D60E09C082E06FEF0E94D60E03
:102AE00004C083E06FEF0E94D60E0F900F900F90FE
:102AF000CF91DF910895DF93CF93CDB7DEB72797BE
:102B00000FB6F894DEBF0FBECDBF89836A834B83B7
:102B10008B818130B9F58981282F30E03F832E8366
:102B20008E819F8181309105D9F02E813F812230A5
:102B300031052CF48E819F81009761F05CC02E815D
:102B40003F812230310591F08E819F818330910544
:102B500099F051C080E06A8141E00E94890F4BC02A
:102B600081E06A8141E00E94890F45C082E06A816C
:102B700041E00E94890F3FC083E06A8141E00E94EA
:102B8000890F39C08B818823B1F58981282F30E0E6
:102B90003D832C838C819D8181309105D9F02C81DE
:102BA0003D81223031052CF48C819D81009761F0AC
:102BB00022C02C813D812230310591F08C819D8194
:102BC0008330910599F017C080E06A8140E00E944F
:102BD000890F11C081E06A8140E00E94890F0BC01B
:102BE00082E06A8140E00E94890F05C083E06A812B
:102BF00040E00E94890F27960FB6F894DEBF0FBE03
:102C0000CDBFCF91DF910895DF93CF93CDB7DEB7DE
:102C100027970FB6F894DEBF0FBECDBF89836A83B6
:102C20004B838B818130B9F58981282F30E03F8338
:102C30002E838E819F8181309105D9F02E813F8135
:102C4000223031052CF48E819F81009761F05CC0A9
:102C50002E813F812230310591F08E819F8183301A
:102C6000910599F051C080E06A8140E00E94890F8F
:102C70004BC081E06A8140E00E94890F45C082E03C
:102C80006A8140E00E94890F3FC083E06A8140E092
:102C90000E94890F39C08B818823B1F58981282F43
:102CA00030E03D832C838C819D8181309105D9F06A
:102CB0002C813D81223031052CF48C819D8100973F
:102CC00061F022C02C813D812230310591F08C8150
:102CD0009D818330910599F017C080E06A8141E0C1
:102CE0000E94890F11C081E06A8141E00E94890F32
:102CF0000BC082E06A8141E00E94890F05C083E039
:102D00006A8141E00E94890F27960FB6F894DEBFD2
:102D10000FBECDBFCF91DF910895DF93CF9300D049
:102D200000D000D0CDB7DEB789836A838A81813035
:102D300099F58981282F30E03E832D838D819E81F6
:102D400081309105D1F02D813E81223031052CF466
:102D50008D819E81009761F054C02D813E8122308B
:102D6000310581F08D819E818330910581F049C0CC
:102D700080E06FEF0E94C41044C081E06FEF0E94BA
:102D8000C4103FC082E06FEF0E94C4103AC083E0DD
:102D90006FEF0E94C41035C08A81882391F5898124
:102DA000282F30E03C832B838B819C8181309105DF
:102DB000D1F02B813C81223031052CF48B819C8118
:102DC000009761F01EC02B813C812230310581F0DB
:102DD0008B819C818330910581F013C080E060E09D
:102DE0000E94C4100EC081E060E00E94C41009C0BF
:102DF00082E060E00E94C41004C083E060E00E94B2
:102E0000C41026960FB6F894DEBF0FBECDBFCF918B
:102E1000DF910895DF93CF9300D000D000D0CDB7DD
:102E2000DEB789836A838A81813099F58981282F69
:102E300030E03E832D838D819E8181309105D1F0DC
:102E40002D813E81223031052CF48D819E810097A9
:102E500061F054C02D813E812230310581F08D8199
:102E60009E818330910581F049C080E060E00E943E
:102E7000C41044C081E060E00E94C4103FC082E002
:102E800060E00E94C4103AC083E060E00E94C41079
:102E900035C08A81882391F58981282F30E03C83D1
:102EA0002B838B819C8181309105D1F02B813C81DA
:102EB000223031052CF48B819C81009761F01EC07B
:102EC0002B813C812230310581F08B819C818330C4
:102ED000910581F013C080E06FEF0E94C4100EC016
:102EE00081E06FEF0E94C41009C082E06FEF0E9482
:102EF000C41004C083E06FEF0E94C41026960FB682
:102F0000F894DEBF0FBECDBFCF91DF910895DF9360
:102F1000CF9300D000D0CDB7DEB789836A83898193
:102F2000282F30E03C832B838B819C81813091055D
:102F3000D1F02B813C81223031052CF48B819C8196
:102F4000009761F01EC02B813C812230310581F059
:102F50008B819C818330910581F013C080E06A8170
:102F60000E94CD110EC081E06A810E94CD1109C07E
:102F700082E06A810E94CD1104C083E06A810E94D0
:102F8000CD110F900F900F900F90CF91DF9108957A
:102F9000DF93CF9300D00F92CDB7DEB789838981BD
:102FA000282F30E03B832A838A819B8181309105E1
:102FB000C9F02A813B81223031052CF48A819B8122
:102FC000009761F01AC02A813B812230310571F0EF
:102FD0008A819B818330910569F00FC080E00E9457
:102FE00052120BC081E00E94521207C082E00E9480
:102FF000521203C083E00E9452120F900F900F9064
:10300000CF91DF910895DF93CF9300D0CDB7DEB796
:1030100089836A8389816A8141E00E940C0D0F9047
:103020000F90CF91DF910895DF93CF9300D0CDB76C
:10303000DEB789836A8389816A8141E00E94890FB2
:103040000F900F90CF91DF910895DF93CF9300D031
:10305000CDB7DEB789836A8389816A8140E00E94A7
:10306000890F0F900F90CF91DF910895DF93CF9349
:1030700000D0CDB7DEB789836A8389816A810E94D7
:10308000CD110F900F90CF91DF910895DF93CF93E3
:10309000CDB7DEB7AA970FB6F894DEBF0FBECDBF8F
:1030A00080E690E00E94210780E090E0AAE7B4E487
:1030B0008FA398A7A9A7BAA76FA178A589A59AA554
:1030C00020E030E04AEF54E40E941F02DC01CB0113
:1030D0008BA39CA3ADA3BEA36BA17CA18DA19EA13C
:1030E00020E030E040E85FE30E94790388232CF47D
:1030F00081E090E09AA389A33FC06BA17CA18DA140
:103100009EA120E03FEF4FE757E40E9419031816F5
:103110004CF56FA178A589A59AA520E030E040E2A2
:1031200051E40E941F02DC01CB01BC01CD010E94D1
:103130004900DC01CB019AA389A30FC088EC90E081
:1031400098A38F8F8F8D98A10197F1F798A38F8FF8
:1031500089A19AA101979AA389A389A19AA100970D
:1031600069F714C06BA17CA18DA19EA10E944900AA
:10317000DC01CB019AA389A389A19AA19E8F8D8F8F
:103180008D8D9E8D0197F1F79E8F8D8F8DE790E04D
:103190000E94210780E090E0AAE7B4E4898F9A8F2B
:1031A000AB8FBC8F698D7A8D8B8D9C8D20E030E04C
:1031B0004AEF54E40E941F02DC01CB018D8B9E8BF1
:1031C000AF8BB88F6D897E898F89988D20E030E034
:1031D00040E85FE30E94790388232CF481E090E0CB
:1031E0009C8B8B8B3FC06D897E898F89988D20E069
:1031F0003FEF4FE757E40E94190318164CF5698D0D
:103200007A8D8B8D9C8D20E030E040E251E40E946D
:103210001F02DC01CB01BC01CD010E944900DC0191
:10322000CB019C8B8B8B0FC088EC90E09A8B898BA9
:1032300089899A890197F1F79A8B898B8B899C8967
:1032400001979C8B8B8B8B899C89009769F714C0A5
:103250006D897E898F89988D0E944900DC01CB01A0
:103260009C8B8B8B8B899C89988B8F878F8598897A
:103270000197F1F7988B8F878BE890E00E942107E8
:1032800080E090E0AAE7B4E48B879C87AD87BE8797
:103290006B857C858D859E8520E030E04AEF54E487
:1032A0000E941F02DC01CB018F839887A987BA8710
:1032B0006F81788589859A8520E030E040E85FE37A
:1032C0000E94790388232CF481E090E09E838D8313
:1032D0003FC06F81788589859A8520E03FEF4FE771
:1032E00057E40E94190318164CF56B857C858D8573
:1032F0009E8520E030E040E251E40E941F02DC01A4
:10330000CB01BC01CD010E944900DC01CB019E83B1
:103310008D830FC088EC90E09C838B838B819C8194
:103320000197F1F79C838B838D819E8101979E830A
:103330008D838D819E81009769F714C06F81788598
:1033400089859A850E944900DC01CB019E838D838B
:103350008D819E819A83898389819A810197F1F772
:103360009A838983AA960FB6F894DEBF0FBECDBFAD
:10337000CF91DF910895DF93CF930F92CDB7DEB752
:1033800080E064E00E94A1121982882311F481E098
:10339000898389810F90CF91DF910895DF93CF9337
:1033A00000D0CDB7DEB789838981882331F080E0F2
:1033B0000E94731481E08A8304C08AE50E9473141A
:1033C0001A828A810F900F90CF91DF910895DF9339
:1033D000CF93CDB7DEB72E970FB6F894DEBF0FBEF2
:1033E000CDBF80E060E00E94A112882309F087C071
:1033F00080E067E041E00E94890F80E061E041E009
:103400000E94890F80E090E0AAEFB4E48B879C874C
:10341000AD87BE876B857C858D859E8520E030E0FD
:103420004AEF54E40E941F02DC01CB018F8398878E
:10343000A987BA876F81788589859A8520E030E0F1
:1034400040E85FE30E94790388232CF481E090E058
:103450009E838D833FC06F81788589859A8520E022
:103460003FEF4FE757E40E94190318164CF56B85A0
:103470007C858D859E8520E030E040E251E40E940D
:103480001F02DC01CB01BC01CD010E944900DC011F
:10349000CB019E838D830FC088EC90E09C838B834F
:1034A0008B819C810197F1F79C838B838D819E8119
:1034B00001979E838D838D819E81009769F714C04B
:1034C0006F81788589859A850E944900DC01CB014E
:1034D0009E838D838D819E819A83898389819A8140
:1034E0000197F1F79A83898380E067E040E00E94CA
:1034F000890F80E061E040E00E94890F0AC080E00F
:1035000067E040E00E94890F80E061E040E00E94B7
:10351000890F2E960FB6F894DEBF0FBECDBFCF91A8
:10352000DF9108950F931F93DF93CF93CDB7DEB74D
:10353000A1970FB6F894DEBF0FBECDBF80E067E065
:103540000E94F71480E061E00E94F71480E062E0DE
:103550000E94F7140E9426140E94AB060E9446188F
:103560000E94E7190E94BB198F8F8F8D0E94CE1980
:103570000E9477088823A1F310921C0286EB92E048
:1035800060E070E046E950E00E94F41C80911C026B
:10359000082F10E00E944A07F801EA54FD4F80838B
:1035A00080911C02882F90E0FC01EA54FD4F80813D
:1035B0008A3099F480911C02882F90E00196FC01DA
:1035C000EA54FD4F108286EB92E02FE930E0B9011A
:1035D0000E94FB1C009739F4C3CF80911C028F5FBF
:1035E00080931C02D3CF86EB92E02AEA30E0B90147
:1035F0000E94FB1C04969E8F8D8FED8DFE8D808129
:1036000080931D0280911D02282F30E039A328A34A
:1036100088A199A18436910509F44BC028A139A14C
:103620002536310584F488A199A182369105C9F126
:1036300028A139A123363105C4F588A199A1813685
:10364000910559F141C028A139A12F363105B1F0BA
:1036500088A199A18037910534F428A139A12C368D
:10366000310591F031C088A199A18837910529F1E0
:1036700028A139A12A37310521F126C080E062E076
:1036800041E00E947B1520C080E090E062E070E0A5
:1036900041E050E00E94041617C08AE50E944714DA
:1036A00013C080E00E9447140FC080E00E949F1466
:1036B0000BC08AE50E949F1407C080E00E94BB14E3
:1036C00003C08AE50E94BB148FEA90E00E942107A4
:1036D00080E090E0AAEFB3E4898F9A8FAB8FBC8F24
:1036E000698D7A8D8B8D9C8D20E030E04AEF54E41B
:1036F0000E941F02DC01CB018D8B9E8BAF8BB88F9C
:103700006D897E898F89988D20E030E040E85FE305
:103710000E94790388232CF481E090E09C8B8B8BB2
:103720003FC06D897E898F89988D20E03FEF4FE7FC
:1037300057E40E94190318164CF5698D7A8D8B8D0C
:103740009C8D20E030E040E251E40E941F02DC0149
:10375000CB01BC01CD010E944900DC01CB019C8B57
:103760008B8B0FC088EC90E09A8B898B89899A8922
:103770000197F1F79A8B898B8B899C8901979C8B98
:103780008B8B8B899C89009769F714C06D897E8922
:103790008F89988D0E944900DC01CB019C8B8B8B1B
:1037A0008B899C89988B8F878F8598890197F1F7F2
:1037B000988B8F8781EC90E00E94210780E090E059
:1037C000AAEFB3E48B879C87AD87BE876B857C852A
:1037D0008D859E8520E030E04AEF54E40E941F0270
:1037E000DC01CB018F839887A987BA876F817885A1
:1037F00089859A8520E030E040E85FE30E94790304
:1038000088232CF481E090E09E838D833FC06F81FC
:10381000788589859A8520E03FEF4FE757E40E943D
:10382000190318164CF56B857C858D859E8520E0E7
:1038300030E040E251E40E941F02DC01CB01BC01F8
:10384000CD010E944900DC01CB019E838D830FC016
:1038500088EC90E09C838B838B819C810197F1F7AE
:103860009C838B838D819E8101979E838D838D8127
:103870009E81009769F714C06F81788589859A8544
:103880000E944900DC01CB019E838D838D819E8146
:103890009A83898389819A810197F1F79A83898331
:1038A00083EF90E00E9421075BCE629FD001739F5F
:1038B000F001829FE00DF11D649FE00DF11D929FCC
:1038C000F00D839FF00D749FF00D659FF00D99270B
:1038D000729FB00DE11DF91F639FB00DE11DF91F2F
:1038E000BD01CF011124089597FB092E07260AD0A8
:1038F00077FD04D02ED006D000201AF47095619583
:103900007F4F0895F6F7909581959F4F0895A1E216
:103910001A2EAA1BBB1BFD010DC0AA1FBB1FEE1F49
:10392000FF1FA217B307E407F50720F0A21BB30B94
:10393000E40BF50B661F771F881F991F1A9469F710
:1039400060957095809590959B01AC01BD01CF016C
:103950000895AA1BBB1B51E107C0AA1FBB1FA617D6
:10396000B70710F0A61BB70B881F991F5A95A9F728
:1039700080959095BC01CD0108952F923F924F9272
:103980005F926F927F928F929F92AF92BF92CF92EF
:10399000DF92EF92FF920F931F93CF93DF93CDB7F8
:1039A000DEB7CA1BDB0B0FB6F894DEBF0FBECDBF70
:1039B00009942A88398848885F846E847D848C8441
:1039C0009B84AA84B984C884DF80EE80FD800C814A
:1039D0001B81AA81B981CE0FD11D0FB6F894DEBF2D
:1039E0000FBECDBFED010895DC0101C06D934150C4
:1039F0005040E0F70895FB0151915523A9F0BF0114
:103A0000DC014D9145174111E1F759F4CD010190C9
:103A1000002049F04D9140154111C9F3FB014111BE
:0E3A2000EFCF81E090E001970895F894FFCF7A
:103A2E0041542B43574A41503D225A4F5A222C2281
:103A3E00313030313030313030220D0A0041542BCC
:103A4E004349504D55583D310D0A0041542B4349C1
:103A5E00505345525645523D312C38300D0A0047D1
:103A6E004554202F3F636D643D00636D643D0041FE
:103A7E00542B43495053454E443D302C34370D0A98
:103A8E0000485454502F312E3120323030204F4BBD
:103A9E000D0A436F6E74656E742D547970653A20FD
:103AAE00746578742F706C61696E0D0A0D0A736FF0
:103ABE006B720041542B434950434C4F53453D309C
:103ACE000D0A0000000000000000000001020203C9
:103ADE000303030404040404040404050505050596
:103AEE000505050505050505050505060606060673
:103AFE000606060606060606060606060606060658
:103B0E000606060606060606060606070707070742
:103B1E000707070707070707070707070707070727
:103B2E000707070707070707070707070707070717
:103B3E000707070707070707070707070707070707
:103B4E0007070707070707070707070808080808F2
:103B5E0008080808080808080808080808080808D7
:103B6E0008080808080808080808080808080808C7
:103B7E0008080808080808080808080808080808B7
:103B8E0008080808080808080808080808080808A7
:103B9E000808080808080808080808080808080897
:103BAE000808080808080808080808080808080887
:103BBE000808080808080808080808080808080877
:0C3BCE0008080808080808080808080093
:00000001FF
